:100000000C94CD010C9414020C9414020C94060C64
:100010000C9414020C9414020C9414020C94140208
:100020000C9414020C9414020C94D11C0C94A31D77
:100030000C945B180C9414020C9414020C9414028B
:100040000C9414020C9414020C9414020C941402D8
:100050000C9414020C94B4180C9414020C94140212
:100060000C9414020C9414020C9414020C941402B8
:100070000C9414020C9414020C9414020C941402A8
:100080000C9414020C9414020C9414020C94140298
:100090000C9414020C9414020C9414020C94140288
:1000A0000C9414020C9414020C941402110F110FEE
:1000B000430F430F9910991099109910900F291020
:1000C0003A103A102D112D113F113F1136113F11E9
:1000D0003F113F112D112D113B113F113F113B11CC
:1000E000101E371E2F1F371E2F1F831EA61E2F1FE9
:1000F000FD1E0C1F29001E001F00200021002200F1
:100100002B0034003600370013001C00E10004000F
:100110001200080018000C003159330014000D00C3
:100120000E001B0000003459E30001512C002F0089
:100130002A002700260025002400230038000F0095
:10014000150006000A0009002D0016001100170016
:100150000B0007002E001D0019001A0010000500FA
:100160000000E600035102512800300035003A003B
:100170003B003C003D003E002B0000000000000062
:100180000000000039001E021F022002210222028C
:10019000E000000000000000000000000000E2009D
:1001A0000100010001000100440043004200410041
:1001B00040003F004500000000000000000000007B
:1001C00035022702260225022402230231023002D0
:1001D0002F022E022D02000000000100010001008C
:1001E0000100010001000100010001000100010007
:1001F00035001E001F00200021002200E100000049
:10020000460049004A004B00E000000000004C009E
:100210004D004E000000E20001000100010001005D
:1002200001000100010001000100010001002700A0
:10023000260025002400230000004F00520051003A
:1002400050000000310030002F002E002D002E0243
:1002500000000100010001000100010029003A0036
:100260003B003C003D003E002B0014001A0008003B
:1002700015001700E10004001600070009000A003D
:10028000E0001D001B000600190005000000E20050
:100290000100010001002D002A004300420041003E
:1002A00040003F003100130012000C0018001C0039
:1002B000340033000F000E000D000B00E400380086
:1002C000370036001000110000000100010001009D
:1002D00001002E0000AE00AF00DA02818FD9F1DB01
:1002E00040A4A62EAF00A0C000A1C800AED580A833
:1002F0001FD300408D1420000403300000000E03C3
:100300004C0069006C0079003500380000001203D1
:1003100046005F0059005500550043004800490061
:1003200000000403090409022200010100A0FA09E7
:100330000400000103010100092111010001224014
:10034000000705810308000A1201100100000008DF
:1003500051FC580000010102030105010906A10139
:10036000050719E029E715002501950875018102A7
:100370009501750881010507190029FF150026FF61
:100380000095067508810005081901290595057570
:10039000019102950175039101C011241FBECFEF99
:1003A000DAE0DEBFCDBF04B603FE27C08091320481
:1003B00090913304A0913404B09135048730904B70
:1003C000A740B04BD1F41092320410923304109233
:1003D00034041092350414BE84B7877F84BF0FB6EF
:1003E000F894A895809160008861809360001092D5
:1003F00060000FBEE0E0F8E3099511E0A0E0B1E095
:10040000EAE5FFE302C005900D92A633B107D9F7E4
:1004100024E0A6E3B1E001C01D92A233B207E1F7E8
:100420000E94131A0C94AB1F0C9400000C941A0237
:1004300081E0089581E0089508950C941C021F93B3
:10044000CF93DF9300D000D01F92CDB7DEB74983A2
:100450005A836B833091800189819A81311114C054
:10046000662359F0222349F00E94EB15182F682FBC
:1004700089819A810E94921503C00E94BE15182F8F
:1004800069817A81812F04C00E94EB1569817A818C
:100490000F900F900F900F900F90DF91CF911F91C1
:1004A0000C94CD02FC01262F408151816281738121
:1004B00084810C941F02CF93DF93EC0160E00E94D3
:1004C0005202BE01DF91CF910C941D020E941017C1
:1004D000811102C00E94B0170C94A7040C94A304CD
:1004E00008950C94700281E008950C947302CF93E8
:1004F000C82F0E9471028C2F0E947502CF9108951F
:1005000008950E941B110E9480022FEF84E39CE05B
:10051000215080409040E1F700C000000C94DA18B0
:100520000F931F93CF93DF93EC0161E00E9452027F
:100530008C01BE010E941602882349F1BE01C80148
:100540000E94D208882319F1BE01C8010E94130934
:100550008823E9F0BE01C8010E943E0A8823B9F051
:100560008A81882369F001158CE5180731F00E3D6A
:100570001C4531F40E94B0170AC00E94810207C0D6
:10058000CE01DF91CF911F910F910C94180280E062
:10059000DF91CF911F910F9108952CE3829FC001AD
:1005A0001124FC0126E0729FE00DF11D1124E60FDD
:1005B000F11DEE0FFF1FEC50FF4F859194910895B0
:1005C000CF93DF930E94CD020E94BE03EC01811500
:1005D00023E5920798F5811542E5940708F094C049
:1005E000C11580E2D807C0F4C11521E0D20708F098
:1005F000C1C0C53AD10548F4C430D10508F0BAC02D
:10060000C130D10509F4B6C0B3C0CE01805E9109F6
:10061000089708F4AFC0ACC0C11541E5D40708F095
:100620006EC0C11580E5D80708F04DC0C11520E4A3
:10063000D20708F49DC0DF70D06A9CC0811546E5E2
:10064000940700F5C11585E5D80708F077C0C115F6
:1006500024E5D20708F06DC0CE018370992721E010
:1006600030E002C0220F331F8A95E2F78C2F869567
:10067000869540E2849FC0011124E901C82BD92B43
:10068000DA6878C081154AE5940778F4C11589E5E0
:10069000D80708F05DC0C11528E5D20708F468C086
:1006A000DC2FCC27C06FD06A65C090568115904270
:1006B00008F05EC08D2F8F710E945204DD27D0623A
:1006C0008F71D82B57C0CE0174E0969587957A9597
:1006D000E1F783709C2F937021E030E002C0220F7D
:1006E000331F9A95E2F73C68382BCF70C695C695B4
:1006F00080E2C89FE0011124C22BD32B3BC0DC2F2A
:10070000CC27C16FD06A36C08370992721E030E0D2
:1007100002C0220F331F8A95E2F78C2F86958695AB
:1007200040E2849FC0011124E901C82BD92BDC6869
:1007300021C0DC2FCC27C46FD06A1CC08C2F0E9434
:1007400052048F71C82FD0E0DC2FCC27D06212C0AA
:100750008C2F8F700E94520494E0D695C7959A957D
:10076000E1F7CF70D0E0DC2FCC27D069C82B02C0D6
:10077000C0E0D0E0CE01DF91CF910895823891059D
:1007800069F1B0F48133910509F46DC048F4893200
:10079000910509F463C08A32910509F469C008958E
:1007A0008533910509F455C089339105B9F0089551
:1007B000833E910569F138F4803E9105B1F0823EA7
:1007C000910509F10895863E9105A9F1873E9105AD
:1007D000B9F1843E910509F064C023C0209123043F
:1007E00020FD4FC021FD4DC008958091230480FD60
:1007F00044C08091240480FF44C08091230484FD80
:1008000042C083EE4DC08091230482FF38C0F5CFF3
:100810008091230482FD33C08091240480FD31C087
:10082000ECCF8091240481FF32C08091230484FDA9
:100830002AC087EE35C08091230483FF26C0F5CF00
:100840008091230483FD21C08091240481FD1FC079
:10085000ECCF8091230485FD1CC01DC08091230432
:1008600085FD19C016C08091230486FD16C017C0EF
:100870008091230486FD13C010C089E311C082EE6D
:100880000FC080EE0DC080E00BC086EE09C084EE84
:1008900007C089E205C085E303C08AE201C081E3A5
:1008A00090E008959091230492FF0DC0282F2871A5
:1008B000283019F4877F846006C0282F24712430E3
:1008C00011F48B7F886093FF0DC0282F2871283189
:1008D00019F4877E846106C0282F2471243111F415
:1008E0008B7E88612091240420FF0DC0382F387141
:1008F000383019F4877F816006C0382F317131306C
:1009000011F48E7F886021FF0DC0282F28712831B7
:1009100019F4877E816106C0282F2171213111F4DD
:100920008E7E886194FD877E0895E82FF0E0E35F76
:10093000FD4F80810895089580EA8A95F1F7089522
:1009400008950C94A0040C94A1040C94A0040C949D
:10095000A5040895CF93DF930E941A0680910001A9
:1009600080910001811102C095E001C090E0909358
:10097000180285E0891B80931702A3E2B1E048E2E8
:1009800051E061E070E08D91E82FE295EF70F0E0CA
:1009900021A18F70EB0102C0CC0FDD1F8A95E2F719
:1009A000CE019C2F9095922391A392A1892B82A393
:1009B0004A175B0741F7ADE1B1E043E251E061E086
:1009C00070E08D91E82FE295EF70F0E021A18F703B
:1009D000EB0102C0CC0FDD1F8A95E2F7CE019C2F00
:1009E0009095922391A392A1892B82A34A175B072A
:1009F00041F7E3E0F2E0ADE0B2E08DE092E0119289
:100A00001D928E179F07D9F785E00E94C4050E94AA
:100A10006602DF91CF910C9424060E94FB05882387
:100A200009F18091170290E0835F9D4F0E94370685
:100A3000811114C0809136018F5F8093360186301A
:100A400078F0E0911702F0E0E35FFD4F80E090E086
:100A50001192019685309105D9F702C010923601A6
:100A60000C946E028091180290E0835F9D4F0E946B
:100A700054060C94A9046F927F928F929F92AF922A
:100A8000BF92CF92DF92EF92FF920F931F93CF937B
:100A9000DF9383E2882E81E0982E03E012E098E055
:100AA000A92E92E0B92E712CCC24C394D12CF40140
:100AB00081914F01C82FC295CF70D0E099A18F705E
:100AC000760101C0EE0C8A95EAF7892F8E2989A359
:100AD0008AA16E2C609486218AA30E949C04EDE179
:100AE000F1E040E050E020E03191A32FA295AF70FB
:100AF000B0E090968C9190E03F7002C095958795FC
:100B00003A95E2F780FD07C08C2D042E01C0880FB6
:100B10000A94EAF701C080E0282B4F5F5F4F463010
:100B2000510511F789A1682269A28AA1E82AEAA2DF
:100B3000F8018081281719F0208381E001C080E04E
:100B4000782A0F5F1F4FA016B10609F0B0CF609151
:100B5000180270E0635F7D4F272D45E083E092E04F
:100B60000E94C5050E940D05872DDF91CF911F9131
:100B70000F91FF90EF90DF90CF90BF90AF909F903C
:100B80008F907F906F9008950895FF920F931F9319
:100B9000CF93DF938C01F62ED72FC42F222349F059
:100BA00081E0809339010E948D18909338018093E1
:100BB0003701809139018823C1F0809137019091EC
:100BC00038010E94A518069780F0EF2DFD2FD8015F
:100BD0004C2F50E0CD01801B910B841795071CF41E
:100BE0008D918193F7CF10923901DF91CF911F91B1
:100BF0000F91FF90089580913A01811112C0809168
:100C0000D80080618093D8008AE18A95F1F700C00E
:100C10008091D90080FD02C082E001C081E0809314
:100C20003A0181E090913A01913009F080E0089515
:100C30000C94FB050E941806809300010E94FB059E
:100C400081110C942B0608950E94FB05811102C0AE
:100C50000C943106089561E070E081E091E00C941D
:100C6000B40B61E070E081E091E00C94BD0BCF9398
:100C7000DF93D82FC92F80E090E00E94960C892B3B
:100C800079F4ED2FFC2F80E090E0DC01A45CBE4FF6
:100C90002C912193019685309105B9F781E001C02F
:100CA00080E0DF91CF91089520E030E0FC01419198
:100CB000CF01F901E45CFE4F40832F5F3F4F2530A9
:100CC0003105A1F70895EF92FF920F931F93CF93F1
:100CD000DF93EC017B0164E670E088E70E94750A0F
:100CE0008C01EC0EFD1ECE15DF0561F017FD0AC06C
:100CF000FE01849164E670E00E94CC0A8C0121968A
:100D0000892B89F30E94500BC801DF91CF911F916D
:100D10000F91FF90EF9008950895E9E1F2E080E0EF
:100D200092E0DF019C011D9221503040E1F7F093E9
:100D30001E04E0931D048FEF9FEF90936701809353
:100D4000660108950E948C068093620180FD02C0B6
:100D500080E801C080E2809361010E946F0A6DE02B
:100D600070E08BEE92E00E946306892B11F080E028
:100D700008958091620163E070E081FD03C088EE18
:100D800092E002C085EE92E00E946306892B79F71B
:100D90006DE070E088ED92E00E946306892B39F7E0
:100DA0000E949918DC01CB01805A9541AF4FBF4F8B
:100DB0008093190490931A04A0931B04B0931C040D
:100DC0000E948D0681E080936501809364011092FA
:100DD000630108952091610136E0839FC0011124D1
:100DE000629F800D911D1124811522E0920714F05D
:100DF00080E090E0875E9D4F90931E0480931D04D9
:100E000008950E949918DC01CB01805A9541AF4F9B
:100E1000BF4F8093190490931A04A0931B04B093BE
:100E20001C048091640181110BC062E070E086EDCA
:100E300092E00E946306892B19F481E0809364019B
:100E40008091640108956F927F928F929F92AF92EA
:100E5000BF92CF92DF92EF92FF920F931F93CF93A7
:100E6000DF9320916601309167012115310509F466
:100E7000D4C0809163018111D0C061E070E0082F7F
:100E800010E03B01082E02C0660C771C0A94E2F7C2
:100E9000A30142235323452B11F48F5FF0CF909190
:100EA0006201980165E0220F331F6A95E1F790FD1A
:100EB00012C08295880F807680930B01220F232F1A
:100EC000221F330B319520930E01815E80930C011C
:100ED00010920F0112C045E0369527954A95E1F72B
:100EE000220F220F220F20930B0110920E01295F77
:100EF00020930C0183E080930F0124E630E047E06B
:100F000050E069E071E088E70E94FC0A892B09F053
:100F100084C08091620180FD23C0A80195E0440F48
:100F2000551F9A95E1F7475E5D4F04E610E020E219
:100F300030E060E488E70E94230B892B09F06DC044
:100F40000E940107E301C095D095809166019091C0
:100F50006701C823D923D0936701C09366015DC0A0
:100F600080E2E1E4F1E0DF011D928A95E9F785E096
:100F7000000F111F8A95E1F7A1E3B1E04DE251E0C6
:100F8000992493942D91EA018991AE01B801680FDB
:100F9000711D675E7D4F30E02F5B3E4FF90197E09A
:100FA0007F01E21AF30AA92C01C0AA0CEA94EAF71D
:100FB0007B01B12CE70189917E018A21892E8B1852
:100FC000D82DD770CD2E0D2E000CDD08C82F01C0F6
:100FD000CC0FDA95EAF7D194C194D108D7E0CD22AD
:100FE000DD2401C08695CA94EAF78C2BD0808D2928
:100FF0008083B39488E0B812DDCF915031969F3F43
:1010000079F6C1E0A533BC0709F0BCCF04E610E0D7
:1010100020E230E041E451E08CCFDF91CF911F918D
:101020000F91FF90EF90DF90CF90BF90AF909F9087
:101030008F907F906F90089580916401882369F06C
:1010400062E070E084ED92E00E946306892B19F063
:10105000809164010895109264019091640181E08F
:101060008927089508950F931F9380916501882320
:1010700011F160E080E00E94EA060E9432080E94BE
:101080002307809164018823B1F00E949918009190
:10109000190410911A0420911B0430911C04DC01E6
:1010A000CB01801B910BA20BB30BB7FD04C01F91AA
:1010B0000F910C941C081F910F9108950F931F938B
:1010C000CF93DF93C62FD42F122FFC018281882368
:1010D000C9F060936A010E948D1890936901809312
:1010E000680180E28C0F883008F057C0C77081E03B
:1010F00001C0880FCA95EAF7DF91CF911F910F9138
:101100000C94C90E80916A01681330C08091680107
:10111000909169010E94A518883C910538F500E27C
:101120000D0FCD17B9F080E28C0F883040F4C770F6
:1011300081E001C0880FCA95EAF70E94D00E0830FE
:1011400028F581E09D2F977001C0880F9A95EAF7E6
:101150000E94C90E812F0E94B60E0830F0F4D7709D
:1011600081E001C0880FDA95EAF70AC080E28C0FAF
:10117000883098F4C77081E001C0880FCA95EAF7FB
:10118000DF91CF911F910F910C94D00E812FDF91A1
:10119000CF911F910F910C94B60EDF91CF911F91BB
:1011A0000F9108959C01CB01233F4CE53407F9F0E2
:1011B00078F4283DFCE53F07B9F0293D4CE53407BC
:1011C00011F1273D3C4531F526E241EE61EE1EC0AE
:1011D000253FFCE53F0799F070F0263F3C45D1F4F0
:1011E00027E245EE66EE12C027E245EE0EC026E28B
:1011F00041EE60EE0BC027E245EE64EE07C026E24A
:1012000041EE62EE03C028E241E065EE0E945E0816
:1012100080E00895FC018281882319F010926A0110
:10122000089581E00895CF93DF93EC01FB01828163
:10123000882309F41FC1C230FCE5DF0708F41BC195
:10124000C6319CE5D90738F09E012A5F3C4529301C
:10125000310508F010C10E94231790932404809355
:101260002304C031ECE5DE0709F4C3C008F041C037
:10127000C8308CE5D80709F49AC0F0F4C430ECE526
:10128000DE0709F487C068F4C2308CE5D80709F49A
:1012900077C0C330DC4509F0E3C08091230482604D
:1012A00076C0C630ECE5DE0709F46EC008F07BC0FE
:1012B0008091230488606BC0CC308CE5D80709F49A
:1012C00085C068F4CA30ECE5DE0709F474C008F0A4
:1012D00079C00E941B1180912304806858C0CE30D1
:1012E0008CE5D80709F476C008F07FC0809123040C
:1012F0008BC0CB3FECE5DE0709F44FC018F5C331D6
:101300008CE5D80709F47DC078F4C131ECE5DE073F
:1013100009F473C0C231DC4509F0A2C00E941B1160
:10132000809123048F7733C0C5318CE5D80709F449
:1013300072C008F486C0CA3FDC4509F091C08091B4
:1013400024043EC0CF3FFCE5DF0709F45FC058F43A
:10135000CD3F9CE5D90709F444C008F43FC0809113
:10136000240482602DC0C130FDE5DF0709F475C09B
:1013700008F45DC0C230DD4509F072C080E06EC087
:1013800080912304816003C0809123048061809355
:10139000230466C08091230411C0809124048260DC
:1013A000809324045DC0809123048062F0CF8091FB
:1013B00023048064ECCF8091230488608460E7CFAD
:1013C0008160EECF809123048E7FE1CF8091230452
:1013D0008D7FDDCF80912304877FD9CF8091240436
:1013E00018C0809124048D7FDBCF809123048F7EF1
:1013F000CECF809123048F7DCACF809123048F7B31
:10140000C6CF80912304877F8B7FC1CF8091240436
:101410008D7F8E7FC5CF8091230482FB222720F908
:1014200091E0922790FB82F990FB83F9B0CF8091F5
:101430002404982F909591708E7F892B90FB81F9D1
:10144000AFCF0E941B118091230487FB222720F934
:1014500091E0922790FB87F99ACF81E00E94B21722
:1014600080912304909124040E9434170E941B1140
:1014700080E001C081E0DF91CF910895CF93DF93A9
:1014800086319C4541F5EB010E946C16982F8A81AC
:101490002091100130911101882379F09A7A81E02E
:1014A00009F480E080936B01911102C069E201C0F0
:1014B00065E3C9010E94F9170AC080916B0181118F
:1014C00002C069E201C065E3C9010E94FB170E94E6
:1014D000AD1680E001C081E0DF91CF9108951092B8
:1014E000B9008CE08093B8000895EF92FF920F93BB
:1014F0001F93CF93DF93182FEB011092BC0084EA67
:101500008093BC000E948D187C018091BC0087FDF7
:101510000EC0CF3F8FEFD807C1F30E948D188E19F0
:101520009F098C179D0788F38EEF9FEF2EC0809147
:10153000B900887F883041F08091B900887F803180
:1015400019F08FEF9FEF21C01093BB0084E88093C8
:10155000BC000E948D188C018091BC0087FD0CC0DE
:10156000CF3F8FEFD807C1F30E948D18801B910BDE
:101570008C179D0788F3D8CF8091B900887F883178
:1015800011F08034F1F680E090E0DF91CF911F916F
:101590000F91FF90EF9008950F931F93CF93DF93D8
:1015A000EB018093BB0084E88093BC000E948D18FF
:1015B0008C018091BC0087FD0EC0CF3F8FEFD80714
:1015C000C1F30E948D18801B910B8C179D0788F327
:1015D0008EEF9FEF0CC02091B900287F81E090E052
:1015E000283211F480E090E0919581959109DF9186
:1015F000CF911F910F910895CF92DF92EF92FF92BA
:101600000F931F93CF93DF936B018A017901B90187
:101610000E94750AE6010C0D1D1DC017D10761F46B
:1016200024E92093BC00DF91CF911F910F91FF908F
:10163000EF90DF90CF90089597FDF2CFB701899199
:101640000E94CC0AEACFCF92DF92EF92FF920F93E3
:101650001F93CF93DF93C62F6A017901B8010E94CF
:10166000750A97FD11C0B8018C2F0E94CC0AE601C3
:10167000EC0CFD1CCE15DF0539F097FD05C0B80157
:1016800089910E94CC0AF6CF24E92093BC00DF9117
:10169000CF911F910F91FF90EF90DF90CF90089521
:1016A00084E98093BC0008958EE14A9B02C081507A
:1016B000E1F74A9BFECF08955A9880E28A95F1F7A8
:1016C0005A9A0895FC012AE02A95F1F790E020E06B
:1016D00080E031E0261779F040E14A95F1F7880F74
:1016E0004A9B02C08160932700C0000040E14A95F8
:1016F000F1F72F5FEFCF20E12A95F1F729B100C074
:10170000000030E13A95F1F722FB222720F99227D9
:101710002081920F90830895EF92FF920F931F9371
:10172000CF93DF931F92CDB7DEB719828C017C0176
:10173000E60EF11C0E151F0559F00E94540B68E0CF
:10174000CE0101960E94620BF80181938F01F2CFC6
:1017500081E09981911180E00F90DF91CF911F91ED
:101760000F91FF90EF90089590936E0180936D011B
:1017700060936C01529A5A9A089590936E018093E7
:101780006D0160936C0152985A9AEA9AE9E6F0E08A
:1017900080818F7C80830895615091E001C0990F12
:1017A0006A95EAF720E031E0992361F0492F482358
:1017B00019F05A9A232701C05A9840E24A95F1F746
:1017C0009695F2CF222311F05A9A01C05A9880E2DE
:1017D0008A95F1F75A980895FF920F931F93CF932C
:1017E000DF93EC018C01060F111DC017D10741F0EA
:1017F000F9900E945C0B68E08F2D0E94CC0BF5CF16
:10180000DF91CF911F910F91FF9008951F920F923A
:101810000FB60F9211240F931F932F933F934F9363
:101820005F936F937F938F939F93AF93BF93EF9348
:10183000FF93CF93DF931F92CDB7DEB719820E943B
:10184000540B67E0CE0101960E94620B382F36954B
:1018500036953695932F96959570232F2570920F78
:10186000292F2370969596958770920F891348C0FB
:101870008981811145C080916C01831708F440C0B3
:1018800080E18A95F1F75A9A529AA2E0AA95F1F767
:1018900000C000916D0110916E01B8E03B9F000DFA
:1018A000111D11245A98F8016581662321F0868163
:1018B00097810E94EC0B0E945C0BF0E1FA95F1F726
:1018C0005A9852985A9A80E18A95F1F7D80112965F
:1018D0006C911297662369F013968D919C911497E1
:1018E0000E948C0BD801ED91FC91811105C082E022
:1018F00004C0D801ED91FC9188E080830E94540BD4
:101900000F90DF91CF91FF91EF91BF91AF919F9198
:101910008F917F916F915F914F913F912F911F9187
:101920000F910F900FBE0F901F9018950F931F935C
:10193000CF93DF9320916C0130E0281739070CF426
:1019400071C09C0193E0220F331F9A95E1F7C0917B
:101950006D01D0916E01C20FD31FF894529A5A981C
:1019600045E04A95F1F70000982F9695957085709F
:10197000890F982F937086958695890F8901082B7A
:101980000E945C0B84E08A95F1F700C067E0802F2D
:101990000E94CC0B40E14A95F1F752985A9A4A9925
:1019A00002C000C0FCCF87E090E04A9B0EC00197C8
:1019B00051F4529A5A9AE881F98181E080837894AF
:1019C00081E090E031C000C0F0CF6D81662381F0EE
:1019D0008E819F810E948C0B81110AC0529A5A9A63
:1019E000E881F98182E08083789482E090E01CC0F5
:1019F0000E94540B80E28A95F1F75A98529A40E17E
:101A00004A95F1F76A81662321F08B819C810E94BF
:101A1000EC0B0E945C0BE881F9811082789480E0E5
:101A200090E002C084E090E0DF91CF911F910F9190
:101A3000089590937401809373010895E091730168
:101A4000F0917401309721F00190F081E02D09941C
:101A500080E00895E0917301F0917401309721F0D6
:101A60000280F381E02D0994089520917101309155
:101A700072012817390771F09093720180937101F8
:101A8000E0917301F0917401309721F00680F781A5
:101A9000E02D0994089520916F013091700128176D
:101AA000390771F09093700180936F01E091730199
:101AB000F0917401309721F00084F185E02D0994B4
:101AC000089585B7806885BF85B7806885BF08950C
:101AD00008950C94680D0C94690D0C94680D0C9489
:101AE000680D0E94610D0E946D0D0C946B0D0C949D
:101AF000FB050E9484180E94AA0480E00E94A206AE
:101B00000E94EB180C946F0D9F92AF92BF92CF92F0
:101B1000DF92EF92FF920F931F93CF93DF93CDB796
:101B2000DEB72A970FB6F894DEBF0FBECDBF0E9476
:101B30003B05C82E0E94770D811111C08FEF89835C
:101B40008A831B820E948D188160782F9D838C83ED
:101B500049815A816B818D810E94230E40C086E7A6
:101B6000A82E81E0B82E00E010E0902E802F0E9479
:101B70009504E82EF501D1905F01D82631F40F5F6E
:101B80001F4F0A30110589F7D9CF8091F60181FDE9
:101B90000E949B0480E0FF24F3949D2D9F21D1F0AF
:101BA0008E839F82EF2081E009F480E088870E9485
:101BB0008D188160782F9A8789874E815F8168852B
:101BC0008A850E94230EF801EA58FE4F8081F8268C
:101BD000F08205C08F5FFF0C8630F9F6D0CF0E94EF
:101BE0003308C1100E9401070E941E0D90917501DB
:101BF0008917B9F00E941E0D809375012A960FB6C1
:101C0000F894DEBF0FBECDBFDF91CF911F910F9132
:101C1000FF90EF90DF90CF90BF90AF909F900C948B
:101C200077022A960FB6F894DEBF0FBECDBFDF91C4
:101C3000CF911F910F91FF90EF90DF90CF90BF90C9
:101C4000AF909F900895CF93DF93CDB7DEB72B97DA
:101C50000FB6F894DEBF0FBECDBF4F83588769879C
:101C60007A878B87DE01119686E0FD0111928A95B5
:101C7000E9F785E0FE01379601900D928A95E1F72C
:101C800049815A816B817C818D819E810E94D41310
:101C90002B960FB6F894DEBF0FBECDBFDF91CF916C
:101CA0000895FC01808191810E942D160895CF93A3
:101CB000882371F1C82F8CEF8C0F813AD0F46C2FF0
:101CC00080911001909111010E94C317882349F05F
:101CD0006C2F80911001909111010E94FB170E94BE
:101CE000AD166C2F80911001909111010E94F9178F
:101CF0000CC080E28C0F883058F4C77081E001C0BE
:101D0000880FCA95EAF70E946F16CF910C94AD1612
:101D1000CF910895882349F1682F8CEF860F813A7F
:101D200038F480911001909111010E94FB170CC0B2
:101D300080E2860F883050F4677081E001C0880F20
:101D40006A95EAF70E9475160C94AD168BE5860F1E
:101D5000833020F480E090E00C94350D685A6731B0
:101D600020F480E090E00C944B0D0895CF93C82FA1
:101D70000E94570EC93349F42FEF87EE93E02150AC
:101D800080409040E1F700C000008C2FCF910C9470
:101D90008A0E882321F00E946F160C94AD160895C8
:101DA000882321F00E9475160C94AD160895CF92E9
:101DB000DF92EF92FF920F931F93CF93DF937C01FB
:101DC000D62FC72FFC01158112951F7002810111BA
:101DD0000E948C160E946516882399F0002389F0D2
:101DE0008C2F807F803421F080E28D0F883048F086
:101DF00082E00E94F7160E94651691E0D82ED9263F
:101E000001C0D12CCC2EC2948FE0C8228C2D90E042
:101E10008C30910508F08DC1FC01EA5AFF4F0C94FB
:101E2000631F8C2F807FCF70882311F0C295C07FF5
:101E3000002399F0CC2309F468C180E28D0F88302B
:101E400010F0D11104C08C2F0E946F1603C08C2F8C
:101E50000E947F160E94AD1658C18D2F0E948A0ED7
:101E6000CC2309F466C180E28D0F883010F0D111C7
:101E700004C08C2F0E94751603C08C2F0E948516FB
:101E80000E94AD1656C18C2F807FCF70803211F02A
:101E9000C295C07FDD2319F0D130C9F022C00023E4
:101EA00071F0112341F0113031F40E9492168C2B05
:101EB0000E949A163EC10E9492168C2B1DC01123BF
:101EC00019F0113009F435C10E94A31625C0002372
:101ED00021F0163008F02DC10EC0153008F029C1D0
:101EE0001BC0002361F0112331F0F701858180FFD1
:101EF0000CC18F7085838C2F0E94C90E1AC11123CB
:101F000059F0D93309F012C1FFEF07EE13E0F15099
:101F100000401040E1F708C18C2F0E94D00E09C18B
:101F20008C2F837009F047C0011107C12D2F229516
:101F300026952770220F220F6D2F6F70862F90E04D
:101F4000A0E0B0E0022E04C0880F991FAA1FBB1F9B
:101F50000A94D2F7D4FF10C04FE050E060E070E088
:101F600004C0440F551F661F771F2A95D2F740956E
:101F700050956095709503C040E050E0BA01C69559
:101F8000C695C3708A019B01082B192B2A2B3B2B6A
:101F9000C901B801C23049F058F4C13019F00E94AB
:101FA000A814CBC00E949614C8C00E94BA14C5C021
:101FB0000E949414C2C0002319F08C2F817001C0BC
:101FC0008695882309F4B9C02D2F22952695277070
:101FD000220F220F6D2F6F70862F90E0A0E0B0E0EF
:101FE000022E04C0880F991FAA1FBB1F0A94D2F7A4
:101FF000D4FF10C04FE050E060E070E004C0440F38
:10200000551F661F771F2A95D2F74095509560950A
:10201000709503C040E050E0BA01C695C695C37004
:102020008A019B01082B192B2A2B3B2BC901B801D4
:10203000C23049F058F4C13019F00E946D157DC0CE
:102040000E945B157AC00E947F1577C00E94CE1453
:1020500074C0CF70002339F08C2F0E94F4148D2FA0
:102060000E94C90E6AC08D2F0E94D00E8C2F0E9434
:10207000151563C0D23F01F128F4D03F41F0D13FA4
:10208000A1F03FC0D33FF9F0D43F39F13AC000236B
:1020900041F0153008F04DC08C2F8F710E943A1519
:1020A00048C0163008F045C0F7CF002339F08C2F18
:1020B0008F710E94F4143DC00023C9F38C2F8F71DF
:1020C0000E94151536C0002329F08C2F8F710E94B5
:1020D000DF142FC00E94DA142CC0002349F0CF7106
:1020E0008C2F0E94F41463E08C2F0E94E21621C012
:1020F00081E00E94F7161230E0F082E00E94F716AD
:1021000018C0002331F0112391F28D2F0E94570E39
:1021100010C0112399F2D93349F41FEF27EE33E0B1
:10212000115020403040E1F700C000008D2F0E9488
:102130008A0E88EF8C0D843020F40E941E0D0E94C0
:102140007702DD20C9F00E94611680FD15C0F701FD
:1021500012820E945B160E94F414C7010E94DD10D7
:102160000E945B16DF91CF911F910F91FF90EF902E
:10217000DF90CF900C941515DF91CF911F910F91A7
:10218000FF90EF90DF90CF9008950F931F93CF9320
:10219000DF93EC01688179818A810E9438168C0175
:1021A0000E9491150E948214B801CE010E94D70EA0
:1021B000DF91CF911F910F910895CF93DF93EC01A1
:1021C000988189812B813C81232B31F08F3F31F421
:1021D00081E09F3F19F403C081E001C080E080FDF1
:1021E00019C0CE010E94900281110CC00E94651698
:1021F000882381F08A81882369F082E0DF91CF9182
:102200000C94F716CE010E94C510CE01DF91CF913C
:102210000C945B02DF91CF9108950E948C160E946E
:102220008F160C94AD1680911001909111010E94AF
:10223000FD170C940D110E947C160C941311E92FBC
:10224000E295EF704E2F50E0FA013297EE30F10533
:10225000B0F4EE59FF4F0C94631F803F91F018F4D7
:10226000883E68F40EC0843F51F40BC0883E48F0AD
:10227000813F29F406C093FB882780F9089580E008
:10228000089581E008950E942D160E941F1108955F
:10229000CF93DF9300D000D01F92CDB7DEB70F9061
:1022A0000F900F900F900F90DF91CF910895CF93E3
:1022B000DF9300D000D000D0CDB7DEB726960FB6A2
:1022C000F894DEBF0FBECDBFDF91CF9108951F936D
:1022D000CF93DF93C091810116E080918201C817EE
:1022E00099F0D0E01C9FF0011D9FF00D1124ED57D7
:1022F000FE4F4081518162817381848195810E946A
:1023000057112196C770E9CFDF91CF911F910895A2
:102310004091B3015091B4016091B5017091B60143
:102320008091B7019091B8010C9457110F931F93AE
:10233000CF93DF938091B80182958F7009F05DC0D3
:102340008091B501882309F458C0809181011091D2
:1023500082016091B3017091B401C091B601D09136
:10236000B70191E06F3F09F090E0292F06E0811757
:1023700009F443C0209721F07F3F21F030E003C0F3
:1023800031E001C0322F90E030FD34C0089FF001F1
:10239000099FF00D1124DF01AD57BE4F11963C91FE
:1023A0001197371327C03C91361324C012963C91E5
:1023B000129731111FC013964D915C9114974C1BCD
:1023C0005D0B483C5105B0F48091B8018F7080617D
:1023D0008093B801E857FE4F80818F7080618083C1
:1023E00083EB91E00E94DD10DF91CF911F910F915F
:1023F0000C94671101968770BACFDF91CF911F912E
:102400000F9108959F92AF92BF92CF92DF92EF9279
:10241000FF920F931F93CF93DF93CDB7DEB76197F2
:102420000FB6F894DEBF0FBECDBF8C0185E0F8017A
:10243000DE011D9601900D928A95E1F7F801408129
:102440005181E2809091B3016091B4012091B60175
:102450003091B7012115310531F06F3F31F481E042
:102460009F3F19F403C081E001C080E0F82FF170B4
:102470009F2E80FD46C1F801A380B48083EBC82E57
:1024800081E0D82EF090B501F501E21BF30BFF209F
:1024900009F4DFC08091B801E83CF10508F09BC069
:1024A000282F207F09F052C0561313C0491311C0C2
:1024B000FE2CE1100EC08F7080618093B8010E94E5
:1024C0008811C6010E94DD108091B801F801858352
:1024D00058C1AB2831F05F3F31F481E04F3F19F430
:1024E00003C081E001C080E080FD03C081E08E2553
:1024F00002C080E090E0F82FF170FF2E80FF1CC03A
:10250000809181012091820136E0821709F417C180
:1025100090E0389FF001399FF00D1124ED57FE4FE8
:102520006181561306C06081461303C06281E612C2
:1025300003C001968770E9CFFE2CEE2009F421C17B
:102540008091B80181608093B8015AC0561306C0CB
:10255000491304C0E11002C0F8019FC04D875E8797
:102560008D859E850E944311882379F1EE2069F1C3
:102570002091B801822F82958F7090E0029774F0BD
:102580008091B3019091B40198878F831986BB869F
:10259000AA862C87CE0107960E94DD1086E0F801FE
:1025A000A3EBB1E001900D928A95E1F70E9496119C
:1025B0000E9488110DC0561729F14D875E878D85C1
:1025C0009E850E94431181112CC0C8010E94DD101C
:1025D000FF24F394D6C0282F207F69F77A2DB98A7B
:1025E000A88A6E2D89890E94481183EB91E00E9490
:1025F000DD1086E0F60111928A95E9F70E948811B4
:10260000F12CBFC04913D9CFE110D7CFF801858392
:10261000C8010E94DD1086E0F60111928A95E9F763
:10262000B0C0EE2091F22091B801822F82958F7078
:1026300090E002970CF4B2CF8091B3019091B40175
:102640009A8389831B82BD82AC822E83CE01019640
:10265000A3CFE83CF10508F047C0FE2CEE2009F4BA
:10266000B4CF561330C049132EC02091B80120FDBD
:1026700021C0822F82958F70482F50E0411551055F
:10268000C9F0F80125834F30510541F08F5F982F35
:102690009295907F822F8F70892B8583C8010E942D
:1026A000DD1086E0F801A3EBB1E001900D928A9570
:1026B000E1F742C086E0F801A3EBB1E001900D9292
:1026C0008A95E1F75EC04D875E878D859E850E9465
:1026D0004311811163CF8091B80181608093B8016B
:1026E000C8010E94DD104DC07A2DB98AA88A6E2DCE
:1026F00089890E94481186E0F60111928A95E9F7CE
:102700001BC0EE2009F461CF4D875E878D859E85C5
:102710000E944311F82E882309F457CF86E0F80170
:10272000A3EBB1E001900D928A95E1F783EB91E084
:102730000E94510E0E9496110E94881122C04D875E
:102740005E878D859E850E942D16292F22952F70DC
:10275000223028F49F7039F0811105C00BC024305D
:1027600028F49F7049F4805E883020F0C8010E94F0
:10277000DD109F2CF92C05C0F8019581907F99F709
:10278000F9CF8F2D61960FB6F894DEBF0FBECDBF87
:10279000DF91CF911F910F91FF90EF90DF90CF903D
:1027A000BF90AF909F9008951F93CF93DF93CDB7C5
:1027B000DEB72C970FB6F894DEBF0FBECDBF4F83A8
:1027C000588769877A878B879C87CE0107960E94F6
:1027D00002128823D1F09F8188852A853B85232B8F
:1027E00031F08F3F31F481E09F3F19F403C081E065
:1027F00001C080E080FD47C04F81588569857A859A
:102800008B859C850E9457113EC086E0FE0137965D
:10281000DE01119601900D928A95E1F7FF81E8851E
:102820006A857B856115710531F0EF3F31F481E0F8
:10283000FF3F19F403C081E001C080E080FD23C0A8
:102840002091820130E0C90101968770992740915B
:10285000810150E084179507F1F1F983EA837D83C4
:102860006C8396E0929FD001939FB00D1124AD57D9
:10287000BE4FFE01319601900D929A95E1F780933B
:1028800082010E94671116E080918101909182017E
:10289000891771F1189FC00111248D579E4F0E9416
:1028A0000212882329F1E09181011E9FF001112479
:1028B000ED57FE4F40815181628173818481958102
:1028C0000E9457118091810190E0019687709927AD
:1028D00080938101D9CF0E941B1110928201109226
:1028E0008101E3EBF1E086E0DF011D928A95E9F7D3
:1028F0002C960FB6F894DEBF0FBECDBFDF91CF91FF
:102900001F910895089508950C9483140C948414D1
:102910000E9486146093E5017093E6018093E701BD
:102920009093E8010C940D110C9488140F931F934D
:102930000091E5011091E6012091E7013091E80155
:10294000602B712B822B932B1F910F910C94881469
:102950000F931F930091E5011091E6012091E7018B
:102960003091E80160237123822393231F910F91FB
:102970000C9488140F931F930091E5011091E601C8
:102980002091E7013091E801602771278227932782
:102990001F910F910C9488140C9483140E94CC14F2
:1029A0006093E1017093E2018093E3019093E4016D
:1029B0000C940D1160E070E0CB010C94CE140F93D9
:1029C0001F9341E050E060E070E08A019B0104C089
:1029D000000F111F221F331F8A95D2F7C901B801BA
:1029E0001F910F910C94CE140F931F9341E050E070
:1029F00060E070E004C0440F551F661F771F8A9582
:102A0000D2F78091E1019091E201A091E301B091B0
:102A1000E4018A019B01082B192B2A2B3B2BC901AE
:102A2000B8011F910F910C94CE140F931F9341E0A6
:102A300050E060E070E004C0440F551F661F771F30
:102A40008A95D2F740955095609570958091E101F7
:102A50009091E201A091E301B091E4018A019B0110
:102A6000082319232A233B23C901B8011F910F9181
:102A70000C94CE140F931F9341E050E060E070E09F
:102A800004C0440F551F661F771F8A95D2F78091A7
:102A9000E1019091E201A091E301B091E4018A018A
:102AA0009B01082719272A273B27C901B8011F9135
:102AB0000F910C94CE140F931F930091E10110918C
:102AC000E2012091E3013091E401602B712B822B14
:102AD000932B1F910F910C94CE140F931F93009181
:102AE000E1011091E2012091E3013091E4016023C2
:102AF0007123822393231F910F910C94CE140F9373
:102B00001F930091E1011091E2012091E3013091C6
:102B1000E40160277127822793271F910F910C945E
:102B2000CE140895292F220F920F990F890FE82FA5
:102B3000E695E695E695877051E001C0550F8A95B8
:102B4000EAF785E0E89FF0011124E754FE4F20E00A
:102B500030E070E04081CB01022E02C0969587954F
:102B60000A94E2F7817081958427852384278193D5
:102B70002F5F3F4F2530310569F70895292F220F28
:102B8000920F990F890F682F669566956695982F15
:102B9000977085E0689FB001112440E050E080E02C
:102BA000FB01E40FF51FE754FE4F208130E0092EB2
:102BB00002C0369527950A94E2F721703327042E38
:102BC00001C0220F0A94EAF7822B4F5F5F4F453016
:102BD000510531F70895BF92CF92DF92EF92FF92A5
:102BE0000F931F93CF93DF938C01C090E101D0909E
:102BF000E201E090E301F090E4018091E501909121
:102C0000E601A091E701B091E801C82AD92AEA2A91
:102C1000FB2ACFE1D0E0D701C6010C2E04C0B69547
:102C2000A795979587950A94D2F780FD04C02197C0
:102C300090F7B12C07C0BC2EB8018C2F0E94E00287
:102C40000197A9F38B2DDF91CF911F910F91FF90E9
:102C5000EF90DF90CF90BF900895CF93DF93EC017A
:102C60000E94EB15BE010E94E002DF91CF91089512
:102C70001F93CF93DF93EB0190918001992321F073
:102C8000CB010E942D1613C0882349F0CB010E946E
:102C9000EB15182F682FCE010E94921504C0CB01AE
:102CA0000E94BE15182FBE01812F0E94E002DF9105
:102CB000CF911F9108958091E9018595859585951E
:102CC00008958091E901877008959091E9019770C6
:102CD00081E009F480E008958091F50108959091D4
:102CE000F501892B8093F501089580959091F50168
:102CF00089238093F50108951092F501089590912C
:102D0000F401892B8093F401089580959091F4014A
:102D100089238093F40108951092F401089510928C
:102D2000F30108958091EA01089508950C94951691
:102D30000C9496169091EA01981721F08093EA017D
:102D40000C94981608958091EA01882329F0109236
:102D5000EA0180E00C9498160895E0911001F0913A
:102D600011018091F5018083E0911001F091110132
:102D700090818091F401892B8083E0911001F09182
:102D8000110190818091F301892B80838091EA0168
:102D9000882381F0E0911001F09111019081892B3D
:102DA000808380911001909111010E94B7178111C9
:102DB0000E94A31680911001909111010C942A0D8C
:102DC0000C94951698E0899F90011124262B20934E
:102DD000E9010E94F4148091E90185958595859516
:102DE0000C94E0161092E90180E00C94E01620911A
:102DF000E901809582238093E901982F977079F4F7
:102E000030E0482F082E000C550B2417350739F0F9
:102E10008595859585950E9415150C94F216089553
:102E200080E090E00E94711F21E08C3E9E4F09F0EF
:102E300020E0822F089582E090E00C94691F83E0E7
:102E400090E00C94691FCF9384E090E00E94691F8A
:102E5000C82F81E290E00E94691F2C2F30E0A90169
:102E6000582BCA01CF910895CF93C92F682F84E0C2
:102E700090E00E94771F6C2F81E290E0CF910C943C
:102E8000771FAB01BC018FE090E00C94891FAB0170
:102E9000BC0183E190E00C94891F60E070E0CB01FD
:102EA0000C94471760E070E0CB010E9441170C942E
:102EB0004D176CEE7EEF80E090E00E94951F60E081
:102EC00082E090E00E94771F60E083E090E00E9443
:102ED000771F1092E5011092E6011092E70110921F
:102EE000E80160E084E090E00E94771F60E081E20A
:102EF00090E00E94771F60E085E090E00E94771FDD
:102F000060E086E090E00E94771F6FEF87E090E03E
:102F10000E94771F40E050E0BA0188E090E00E94F4
:102F2000891F60E08DE090E00E94771F40E050E054
:102F3000BA0188E190E00E94891F60E087E190E09B
:102F40000E94771F40E050E0BA018CE190E00E94BF
:102F5000891F60E080E290E00E94771F0C94521776
:102F60000C945917682F8EE090E00C94771FFC01A9
:102F7000329697E080E0915029F021912223D9F3F5
:102F80008F5FF9CF0895662349F0FC0132960896C9
:102F90002191621729F0E817F907D1F780E0089529
:102FA00081E008959C01FC0132969FEF80E0419101
:102FB000461789F09F3F19F4411101C0982F8F5F88
:102FC0008630A9F79F3F39F0F901E90FF11D97FD10
:102FD000FA956283089508959C012A5F3F4FFC0192
:102FE0004281461301C01282019682179307B9F7F6
:102FF00008950C94D2170C94EC17029626E0FC016D
:1030000011922A95E9F7089508950C9404180C94E8
:103010000418CF930E9407180E943B050E940518D0
:10302000C0E08C2F0E949504811104C0CF5FCA308C
:10303000C1F701C081E0CF9108950C9404180C945D
:103040001D180E941F1880912904843049F11092A4
:10305000F70120E488E190E00FB6F894A8958093FA
:1030600060000FBE2093600080E00E9477020E9403
:103070001F1883B7817F846083BF83B7816083BF5C
:103080007894889583B78E7F83BF0FB6F894A89500
:1030900080916000886180936000109260000FBE94
:1030A00008950C9404180E941B110E941E0D0E948A
:1030B00077020C9451181F920F920FB60F921124A1
:1030C0008F939F93AF93BF938091F701811113C0AA
:1030D00080911F0490912004A0912104B0912204BA
:1030E0004196A11DB11D80931F0490932004A093CD
:1030F0002104B0932204BF91AF919F918F910F90C3
:103100000FBE0F901F90189582E084BD93E095BD8F
:103110009AEF97BD80936E0008952FB7F894809131
:103120001F0490912004A0912104B09122042FBF8C
:1031300008952FB7F89460911F0470912004809136
:103140002104909122042FBF08959C014FB7F89459
:1031500080911F0490912004A0912104B091220439
:103160004FBF821B930B089578941F920F920FB656
:103170000F9211248F939F93AF93BF9380911F045D
:1031800090912004A0912104B09122040196A11DE8
:10319000B11D80931F0490932004A0932104B09349
:1031A0002204BF91AF919F918F910F900FBE0F900E
:1031B0001F90189587E797E7909301088093000880
:1031C0009AE088E10FB6F894A895809360000FBE4E
:1031D00090936000FFCF0E941017811102C00E94DF
:1031E000B0170E941B178093F6010E94231790933B
:1031F0002404809323040E941F17682F70E080E04E
:1032000090E00C949414809100020895089508951C
:10321000CF93DF93EC010E94A81A823011F0843022
:1032200039F581E08093E9008FEF9091E8008150BB
:1032300095FD06C095ED9A95F1F700008111F5CF47
:103240008091E80085FF14C040E050E068E070E045
:10325000CE010E94C51A8091E8008E778093E80025
:1032600088E0FE01A8EFB1E001900D928A95E1F7A8
:10327000DF91CF910895089580912804811109C0AC
:103280000E94561C0E94B31C8091E20084608093CF
:10329000E2000895109228040895089508950C946A
:1032A000531842E061EC81E00C94CF1B80912B0419
:1032B000833009F460C030F4813071F0823009F459
:1032C00099C008958A3009F485C08B3009F46BC029
:1032D000893009F0A7C020C080912A04813A09F002
:1032E000A1C08091E800877F8093E80080912E0440
:1032F00090912F04892B21F468E088EF91E003C0BE
:1033000060E080E090E070E00E94101B8091E80097
:103310008B778093E800089580912A04813209F028
:1033200081C080912E0490912F04892B09F07AC0DE
:103330008091E800877F8093E8008091E80082FD1B
:1033400005C0809129048111F8CF6CC02091F30051
:103350008091F20090E0922B029729F48091F10085
:103360008B7F813021F48091F10080930002809165
:10337000E8008B7753C080912A04813A09F052C04B
:1033800080912E0490912F04892B09F04BC08091DD
:10339000E800877F8093E8008091E80080FFFCCF01
:1033A00080911C0136C080912A048132D9F5809128
:1033B0002E0490912F04892BA9F58091E800877F36
:1033C0008093E8000E94041C80912C0480931C01CF
:1033D0000C941B1180912A04813221F58091E80020
:1033E000877F8093E8000E94041C80912D048093C5
:1033F0000102089580912A04813AA1F48091E800A5
:10340000877F8093E8008091E80080FFFCCF809167
:1034100001028093F1008091E8008E778093E800AC
:103420000C94041C089584B7877F84BF0FB6F8946A
:10343000A895809160008861809360001092600080
:103440000FBE90E080E80FB6F894809361009093EF
:1034500061000FBE0E94710D0E94561C0E94B31C99
:103460008091E20084608093E20078940E94481F7B
:103470000E94790D82E191E00E94190D809129044A
:10348000853069F40E942118809127048823B1F3C4
:103490000E940918882391F30E94AF1AEFCF0E946F
:1034A000840DECCF0C94541A292F33272330310587
:1034B000C1F058F42130310579F022303105C1F5E1
:1034C00082E290E026E233E037C02132310511F18B
:1034D0002232310531F12CC082E190E028E433E062
:1034E0002BC099278130910561F040F08230910521
:1034F00059F00397E9F4E8EFF2E008C0E2E2F3E004
:1035000005C0EEE0F3E002C0EEEFF2E0849190E05F
:103510009F0112C0672B61F489E090E028E333E05B
:103520000BC0672B29F480E490E02AE533E004C067
:1035300080E090E020E030E0FA01318320830895BC
:1035400080912904843011F081E0089582E008958B
:1035500080910202811102C00C94A01A089580E1AA
:1035600089BD82E189BD09B400FEFDCF8091D800FC
:103570008F7D8093D8008091E00082608093E0008E
:103580008091E00081FDFCCF0895CF92DF92EF9211
:10359000FF920F931F93CF93DF93EC018B017A017E
:1035A0000E94231C811133C0E114F10439F0F701AA
:1035B00080819181081B190BC80FD91FC12CD12CF8
:1035C0000115110519F18091E80085FD16C0809163
:1035D000E8008E778093E800E114F10449F0F701E8
:1035E00080819181C80ED91ED182C08285E00FC032
:1035F0000E94231C882321F30AC089918093F10043
:1036000001501109FFEFCF1ADF0ADACF80E0DF9116
:10361000CF911F910F91FF90EF90DF90CF90089581
:1036200020913004309131042617370748F0611596
:10363000710539F42091E8002E772093E80001C04D
:10364000B901FC0120E06115710579F1809129042F
:103650008823F1F18530F1F18091E80083FD3CC0D1
:103660008091E80082FD2EC08091E80080FFEBCFC2
:103670002091F3008091F20090E0922B611571058A
:1036800051F08830910538F421912093F100615078
:1036900071090196F3CF21E0089709F020E08091AD
:1036A000E8008E778093E800CECF2111CFCF0AC0FB
:1036B00080912904882361F0853061F08091E800D1
:1036C00083FD0AC08091E80082FFF2CF80E0089578
:1036D00082E0089583E0089581E008952091300408
:1036E000309131042617370748F06115710539F418
:1036F0002091E8002E772093E80001C0B901FC0179
:1037000020E06115710591F180912904882309F465
:1037100040C0853009F43FC08091E80083FD3DC082
:103720008091E80082FD2FC08091E80080FFE9CF02
:103730002091F3008091F20090E0922B61157105C9
:1037400059F08830910540F424912093F10031968E
:10375000615071090196F2CF21E0089709F020E04D
:103760008091E8008E778093E800CBCF2111CCCFF9
:103770000AC080912904882361F0853061F080912E
:10378000E80083FD0AC08091E80082FFF2CF80E06C
:10379000089582E0089583E0089581E00895982FC8
:1037A000973068F59093E900981739F07091EC0024
:1037B0002091ED005091F00003C0242F762F50E0AF
:1037C00021FD02C09F5FECCF3091EB003E7F309334
:1037D000EB003091ED003D7F3093ED003091EB0038
:1037E00031603093EB007093EC002093ED00509328
:1037F000F0002091EE0027FDE5CF80E008958F7066
:103800008093E90081E0089580912A0487FF11C028
:103810008091E80082FD05C0809129048111F8CFD4
:1038200011C08091E8008B770BC080912904882318
:1038300049F08091E80080FFF8CF8091E8008E7712
:103840008093E80008952091E4003091E50095E62A
:103850004091EC00842F817040FF23C08091E800EC
:1038600080FD1DC080912904882399F0853099F04E
:103870008091EB0085FD11C04091E4005091E5007E
:103880002417350729F3915011F09A01E1CF84E014
:10389000089582E0089583E0089581E0089580E02E
:1038A00008954091E80042FFDDCF08950E94C41CB6
:1038B0000E94CC1CE0EEF0E0808181608083E8ED26
:1038C000F0E080818F77808319BCA7EDB0E08C9108
:1038D0008E7F8C9380818F7E808310922804089540
:1038E0000F931F93CF93DF930E94C41C0E94CC1CA4
:1038F000C8EDD0E088818F7788838881806888834D
:1039000088818F7D888319BC109229041092250428
:10391000109227041092260400EE10E0F801808136
:103920008B7F808388818160888342E060E080E0D3
:103930000E94CF1BE1EEF0E080818E7F8083E2EE7B
:10394000F0E0808181608083808188608083F801DD
:1039500080818E7F8083888180618883DF91CF9191
:103960001F910F910895E8EDF0E080818F7E8083B4
:10397000E7EDF0E080818160808384E082BF81E0B8
:10398000809328040C94701CE8EDF0E080818E7F19
:1039900080831092E20008951092DA001092E10004
:1039A00008951F920F920FB60F9211242F933F93F9
:1039B0004F935F936F937F938F939F93AF93BF9337
:1039C000EF93FF938091E10082FF0BC08091E200B2
:1039D00082FF07C08091E1008B7F8093E1000E940D
:1039E000471F8091DA0080FF1FC08091D80080FFC0
:1039F0001BC08091DA008E7F8093DA008091D9001D
:103A000080FF0DC080E189BD82E189BD09B400FE5F
:103A1000FDCF81E0809329040E943C1905C019BCA8
:103A2000109229040E944A198091E10080FF19C078
:103A30008091E20080FF15C08091E2008E7F80932C
:103A4000E2008091E20080618093E2008091D800E2
:103A500080628093D80019BC85E0809329040E947D
:103A60004E198091E10084FF30C08091E20084FF14
:103A70002CC080E189BD82E189BD09B400FEFDCF83
:103A80008091D8008F7D8093D8008091E1008F7E57
:103A90008093E1008091E2008F7E8093E20080912C
:103AA000E20081608093E20080912504882311F078
:103AB00084E007C08091E30087FD02C081E001C07F
:103AC00083E0809329040E944F198091E10083FFD5
:103AD00029C08091E20083FF25C08091E100877FAB
:103AE0008093E10082E08093290410922504809164
:103AF000E1008E7F8093E1008091E2008E7F8093D1
:103B0000E2008091E20080618093E20042E060E0A8
:103B100080E00E94CF1B8091F00088608093F000CD
:103B20000E944D19FF91EF91BF91AF919F918F919D
:103B30007F916F915F914F913F912F910F900FBEA9
:103B40000F901F9018951F920F920FB60F9211248D
:103B50002F933F934F935F936F937F938F939F9395
:103B6000AF93BF93CF93DF93EF93FF93C091E9009F
:103B7000CF708091EC00D82FD17080FDD0E81092EA
:103B8000E9008091F000877F8093F00078940E9494
:103B9000E71D1092E9008091F00088608093F000AA
:103BA000CD2BCF70C093E900FF91EF91DF91CF91C2
:103BB000BF91AF919F918F917F916F915F914F9145
:103BC0003F912F910F900FBE0F901F9018951F934C
:103BD000CF93DF93CDB7DEB7AA970FB6F894DEBFC9
:103BE0000FBECDBFEAE2F4E08091F100819324E0C2
:103BF000E233F207C9F70E9456198091E80083FF6B
:103C00002EC180912A0490912B04492F50E04A3014
:103C1000510508F024C1FA01E059FF4F0C94631FCD
:103C2000803821F0823809F01AC108C0809126043A
:103C300090912704992389F082600FC080912E040F
:103C40008F70873008F00BC18093E9008091EB0002
:103C500085FB882780F91092E9009091E800977F12
:103C60009093E8008093F1001092F100D1C0282FCA
:103C70002D7F09F0F4C0882319F0823061F0EFC085
:103C800080912C04813009F0EAC0933009F080E083
:103C9000809327042EC080912C0481112AC080912A
:103CA0002E048F702FEF280F263008F0D8C0809395
:103CB000E9002091EB0020FF1CC0933021F480919B
:103CC000EB00806214C09091EB0090619093EB0048
:103CD00021E030E0A90102C0440F551F8A95E2F7A8
:103CE0004093EA001092EA008091EB008860809394
:103CF000EB001092E9008091E800877F8093E80054
:103D00000E94041CACC08111AAC010912C041F7722
:103D10008091E3008078812B8093E3008091E8001C
:103D2000877F8093E8000E94041C8091E80080FF58
:103D3000FCCF8091E30080688093E300111102C002
:103D400082E001C083E08093290489C080588230DA
:103D500008F085C080912C0490912D048C3D53E097
:103D6000950779F583E08A838AE289834FB7F894CF
:103D7000DE01139620E03EE051E2E32FF0E05093A5
:103D80005700E49120FF03C0E295EF703F5FEF70B2
:103D90008E2F90E0EA3010F0C79601C0C0968D9348
:103DA0009D932F5F243149F74FBF8091E800877FB3
:103DB0008093E8006AE270E0CE0101960E94101B39
:103DC00016C060912E0470912F04AE014F5F5F4FBB
:103DD0000E94521ABC01892B09F441C09091E8005D
:103DE000977F9093E80089819A810E946E1B809151
:103DF000E8008B778093E80032C0803881F58091AD
:103E0000E800877F8093E800809125048093F1008B
:103E10008091E8008E7772CF811121C080912C04AF
:103E200090912D0499270297D4F48091E800877F20
:103E30008093E80080912C04809325040E94041C48
:103E400080912504811106C08091E30087FD02C0A6
:103E500081E001C084E0809329040E94511980917F
:103E6000E80083FF0AC08091E800877F8093E80024
:103E70008091EB0080628093EB00AA960FB6F894D5
:103E8000DEBF0FBECDBFDF91CF911F910895089582
:103E9000CF93809129048823A1F0C091E900CF70CD
:103EA0009091EC00892F817090FD80E8C82B1092D2
:103EB000E9008091E80083FD0E94E71DCF70C09368
:103EC000E900CF910895EE0FFF1F0590F491E02DCA
:103ED0000994F999FECF92BD81BDF89A992780B5D2
:103EE0000895A8E1B0E042E050E00C949D1F262F19
:103EF000F999FECF92BD81BDF89A019700B40216E0
:103F000039F01FBA20BD0FB6F894FA9AF99A0FBE8D
:103F100008950396272F0E94781F0E94771F252F50
:103F20000E94781F242F0C94781F0196272F0E943F
:103F3000781F0C94771FDC01CB01FC01F999FECFAF
:103F400006C0F2BDE1BDF89A319600B40D92415021
:0A3F50005040B8F70895F894FFCF31
:103F5A00013B01003C01053C010021007F220003D6
:103F6A00EB010319081906193B19071901F6F7316C
:103F7A003332366697C63435000000000000081058
:063F8A00181810080000E9
:00000001FF
