:100000000C94B9040C9400050C9400050C94731026
:100010000C9400050C9400050C9400050C9400054C
:100020000C9400050C9400050C94B6230C948A24BF
:100030000C946F1C0C9400050C9400050C940005A6
:100040000C9400050C9400050C9400050C9400051C
:100050000C9400050C94C61C0C9400050C9400052F
:100060000C9400050C9400050C9400050C940005FC
:100070000C9400050C9400050C9400050C940005EC
:100080000C9400050C9400050C9400050C940005DC
:100090000C9400050C9400050C9400050C940005CC
:1000A0000C9400050C9400050C94000529001E001A
:1000B0001F002000210022002B00340036003700F2
:1000C00013001C00E10004001200080018000C00DE
:1000D0003159330014000D000E001B00000034598C
:1000E000E30001512C004C002A00270026002500C7
:1000F0002400230038000F00150006000A00090044
:100100002D001600110017000B0007002E001D0027
:1001100019001A001000050000000351045102519B
:100120002800310029003A003B003C003D003E0021
:100130002B0035000000000000000000E1001E025E
:100140001F02200221022202E00000000000000045
:10015000000000000000E2000100010001000000BA
:10016000440043004200410040003F004500300091
:100170002F00350231020000E50027022602250289
:1001800024022302E40030022F022E022D0200007E
:100190000000E600010001000100000029003A0013
:1001A0003B003C003D003E002B001E001F002000D5
:1001B00021002200E1003900460049004A004B00BE
:1001C000E000000000004C004D004E000000E20086
:1001D0000100010001000000440043004200410012
:1001E00040003F0045002700260025002400230092
:1001F000E5004F005200510050000000E4000000F4
:1002000000000000000000000000E6000100010006
:100210000100000029003A003B003C003D003E0088
:100220002B0014001A00080015001700E10004005C
:100230001600070009000A00E0001D001B00060070
:10024000190005000000E2000100010001002D007E
:100250002A0043004200410040003F0031001300EB
:1002600012000C0018001C00340033000F000E00B8
:100270000D000B00E40038003700360010001100BC
:100280000000E6000100010001002E000000000057
:100290000000000000000000000000000000F90065
:1002A000000000000000FF00F400F600F500000070
:1002B0000000FE000000FA00000000000000010045
:1002C000010001000100000000000000000000002B
:1002D000000000000000000000000000000000001E
:1002E0000000F300F000F100F20000000000000048
:1002F00000000000000000000000010001000100FB
:100300000100000000AE00AF00DA02818FD9F1DBFE
:1003100040A4A62EAF00A0C000A1C800AED580A802
:100320001FD300408D1420000000000000003E5B41
:100330004F5B3E003E6B4F6B3E001C3E7C3E1C0004
:10034000183C7E3C18001C577D571C001C5E7F5ECD
:100350001C0000183C180000FFE7C3E7FF0000186E
:1003600024180000FFE7DBE7FF0030483A060E00E4
:10037000262979292600407F05050700407F0525AD
:100380003F005A3CE73C5A007F3E1C1C0800081CFA
:100390001C3E7F0014227F2214005F5F005F5F001D
:1003A00006097F017F00006689956A0060606060D1
:1003B000600094A2FFA2940008047E0408001020AC
:1003C0007E20100008082A1C0800081C2A080800C3
:1003D0001E10101010000C1E0C1E0C0030383E3881
:1003E0003000060E3E0E0600000000000000000077
:1003F0005F000000000700070000147F147F140056
:10040000242A7F2A120023130864620036495620EA
:100410005000000807030000001C224100000041BA
:10042000221C00002A1C7F1C2A0008083E08080025
:1004300000807030000008080808080000006060B4
:1004400000002010080402003E5149453E000042D1
:100450007F4000007249494946002141494D33001F
:100460001814127F10002745454539003C4A494978
:1004700031004121110907003649494936004649F2
:1004800049291E0000001400000000403400000054
:100490000008142241001414141414000041221402
:1004A00008000201590906003E415D594E007C12C8
:1004B00011127C007F49494936003E4141412200EA
:1004C0007F4141413E007F49494941007F09090977
:1004D00001003E41415173007F0808087F00004140
:1004E0007F4100002040413F01007F08142241006D
:1004F0007F40404040007F021C027F007F040810C4
:100500007F003E4141413E007F09090906003E410E
:1005100051215E007F0919294600264949493200C8
:1005200003017F0103003F4040403F001F20402067
:100530001F003F4038403F00631408146300030469
:10054000780403006159494D4300007F4141410057
:10055000020408102000004141417F000402010212
:1005600004004040404040000003070800002054C1
:10057000547840007F2844443800384444442800DC
:10058000384444287F0038545454180000087E0929
:1005900002001824241C78007F080404780000441A
:1005A0007D4000002040403D00007F1028440000B6
:1005B00000417F4000007C04780478007C0804043B
:1005C00078003844444438007C1824241800182447
:1005D00024187C007C080404080048545454240067
:1005E00004043F4424003C4040207C001C20402068
:1005F0001C003C4030403C004428102844004C90F3
:1006000090907C004464544C440000083641000043
:1006100000007700000000413608000002010204DB
:1006200002003C2623263C00000000000080808061
:1006300080000000000080E070180C1830E080009E
:100640000010F8901030783010B8FC38100000001E
:10065000000000F8FCF800000000000000000000AE
:100660000000001C9C1C00000000F8FCF8000000CA
:100670000000001CFCF8C000000000000080E0F852
:100680007C1C000000F0FCFCFC1C1C1C1C1C1C1C2A
:100690001C000000000000C0F0F8381C1C1C1C1CD2
:1006A0001C3CF8F0E000E0F0F0F0E0ECEEF7F37066
:1006B00020007C7C7C7E007E7E7E7F7F7F000080B1
:1006C000C0E07E5B4F5BFEC00000C000DCD7DEDE1A
:1006D000DED7DC00C00000000000000000000000C9
:1006E000000000000000000000000000000FBCE05F
:1006F000818181838382870C183060C000001FFED7
:1007000090B9FFBB91983C1811133F1100000000F5
:10071000000000FFFFFF00000000000000000000DC
:10072000000000FFFFFF00000000FFFFFF000000CF
:100730000000000000030F7FF8E080F0FC3F0F0195
:1007400000000000003F3F3F1C1C1C1C1C3C78F8B4
:10075000F0E08000000000C3E7FF7E3C387878704E
:1007600070F8FFDF87000F1F3F7F7F7F7F7F3F1E77
:100770000C001F1F1F3F003F3F3F7F7F7F00307BEC
:100780007F7830202030787F3B0003000F7F0F0FF1
:100790000F7F0F00030000000000000000000000B9
:1007A0000000000000000000183C24666341C18185
:1007B00080808080808081C14162386C4CC681819C
:1007C000808080808081C14362361C180000000058
:1007D000000000FFFFFFC0C0C0C0C0C0C0C0C080DC
:1007E0000000007FFF7F000000007FFFFFC080004F
:1007F0000000E0E0C0C0C0E0F97F1F07000000007B
:10080000000000000070F0E0E0C0C0C0C0E0F0F800
:100810007F3F0F0000000F3F7FF9E0E0C0C0C0C085
:10082000C0E0F97F3F1F0000000000000000000052
:1008300000000000000000000000000000000000B8
:1008400000000000000000000000000000000000A8
:100850000000000000000000000000000000000098
:1008600000000000000000000403300000000E0340
:100870004C0069006C00790035003800000012035C
:1008800046005F00590055005500430048004900EC
:1008900000000403090409023B00020100A0FA0958
:1008A000040000010301010009211101000122409F
:1008B000000705810308000A090401000103000084
:1008C00000092111010001224F00070582032000C9
:1008D0000A120110010000000851FC58000001013B
:1008E00002030105010902A10185020901A1000518
:1008F0000919012905150025019505750181029544
:1009000001750381010501093009311581257F95A4
:10091000027508810609381581257F9501750881C2
:1009200006050C0A38021581257F95017508810698
:10093000C0C005010906A101050719E029E7150056
:10094000250195087501810295017508810105074A
:10095000190029FF150026FF00950675088100057E
:1009600008190129059505750191029501750391F5
:1009700001C011241FBECFEFDAE0DEBFCDBF04B649
:1009800003FE27C08091690590916A05A0916B05CF
:10099000B0916C058730904BA740B04BD1F41092CA
:1009A000690510926A0510926B0510926C0514BED1
:1009B00084B7877F84BF0FB6F894A89580916000B4
:1009C000886180936000109260000FBEE0E0F8E361
:1009D000099512E0A0E0B1E0E2EAF3E502C005907B
:1009E0000D92A231B107D9F725E0A2E1B2E001C032
:1009F0001D92A936B207E1F70E94E7200C94AB29BB
:100A00000C9400008091F2029091F302A091F40204
:100A1000B091F50284309105A105B105E1F128F509
:100A20000097A105B10571F161E871E0823091058F
:100A3000A105B10549F1BF93AF939F938F938CE9C3
:100A400091E09F938F931F9288E18F9382E293E0CE
:100A50009F938F930E9493268DB79EB70A960FB6E9
:100A6000F8949EBF0FBE8DBF13C088309105A105BD
:100A7000B10529F08E309105A105B105E1F66EE8CA
:100A800071E002C065E671E082E293E00E948C268C
:100A900082E293E0089564E771E0F6CF80E091E0B0
:100AA0000895CF93C0E28C33910520F4FC01E25409
:100AB000FE4FC0811F92CF939F938F93FB01808144
:100AC0001F928F9381811F928F938DEA91E09F9364
:100AD0008F931F9288E18F9389E292E09F938F9387
:100AE0000E9493268DB79EB70E960FB6F8949EBFC0
:100AF0000FBE8DBF8091120290911302449761F452
:100B00001092130210921202E4E1F2E080E281936B
:100B100092E0E832F907D9F780911202909113021E
:100B2000FC01EC5EFD4FC08301969093130280930D
:100B30001202CF91089589E292E0089584E192E053
:100B400008950C94C505CF93C82F0E949209811176
:100B500001C0C2E08C2FCF9108950E949209882392
:100B600079F00E94020560E00E94810B0E949B05C3
:100B700060E00E94810B0E949E0560E00C94810B56
:100B80000E944E0560E00C94650BFB01228121114F
:100B90000E94510581E0089581E0089508950C9424
:100BA000CE051F93CF93DF9300D000D00F92CDB727
:100BB000DEB749835A836B833091910289819A8190
:100BC00031111DC06623B9F02223A9F00E94ED194E
:100BD000182F682F89819A810E94961969817A81DC
:100BE000812F0F900F900F900F900F90DF91CF916A
:100BF0001F910C947D060E94C419182FEFCF0E94FC
:100C0000ED1969817A81EDCFFC01262F4081518158
:100C10006281738184810C94D105CF93DF93EC01C1
:100C200060E00E940406BE01DF91CF910C94CF05D5
:100C30000E94241B811102C00E94C11B0C94440815
:100C40000C94470808950C94220681E008950C94B2
:100C50002506CF93C82F0E9423068C2FCF910C948A
:100C6000270608950E948A150E9431062FEF84E31B
:100C70009CE0215080409040E1F700C000000C94BF
:100C8000EA1C0F931F93CF93DF93EC0161E00E9466
:100C900004068C01BE010E94A105882329F1BE0132
:100CA000C8010E94460D8823F9F0BE01C8010E94C8
:100CB000870D8823C9F0BE01C8010E94AA0E8823AF
:100CC00099F08A81882339F001158CE5180751F0D5
:100CD0000E3D1C4579F0CE01DF91CF911F910F9110
:100CE0000C94CC050E94320680E0DF91CF911F91D9
:100CF0000F9108950E94C11BF7CF972F70E026E057
:100D0000929F600D711D1124FB019CE3899FE00DF2
:100D1000F11D1124EE0FFF1FE455FF4F85919491B3
:100D20000895CF93DF930E947D060E946907EC012E
:100D3000811522E5920778F5811531E5930708F0D2
:100D400098C08F3F910509F0B8F4803F910508F0F5
:100D50006FC0853A910540F48430910548F40197BD
:100D600039F0D0E0C0E004C0805E91090897C8F770
:100D7000CE01DF91CF910895811540E5940708F0E9
:100D80005CC0C11580E4D80708F054C0C11590E2DA
:100D9000D90770F3E6CF811526E5920718F581157E
:100DA00035E5930708F07DC0811544E5940708F008
:100DB00073C0982F969596959E0123703327C11581
:100DC000D34508F45BC0C1E0D0E002C0CC0FDD1F0A
:100DD0002A95E2F730E2939FC0011124C82BD92B4A
:100DE000DA68C6CFC1159AE5D90778F4C11529E5A7
:100DF000D20708F060C0C11538E5D30708F4B1CFB9
:100E0000DC2FCC27C06FD06AB3CFCE0190568115AE
:100E1000904208F0A6CF8D2F8F710E94000890E0BD
:100E2000982F882788279F719C012C2BE90141C0AE
:100E3000D0659ECFDF70D06A9BCFE4E09695879512
:100E4000EA95E1F783702C2F26952695237090E282
:100E5000299F90011124382B8C2F8370C1E0D0E0A2
:100E600002C0CC0FDD1F8A95E2F7C22BD32BDC68C2
:100E70007FCFD82FCC27C16FD06A7ACFC1E0D0E026
:100E800002C0CC0FDD1F2A95E2F720E2929FC0013D
:100E90001124C82BD92BEBCFD82FCC27C46FD06A05
:100EA00067CF0E940008C82FD0E0DC2FCC27CC27CA
:100EB000DF71D0625DCF8C2F8F700E94000834E00C
:100EC000D695C7953A95E1F7CF709C2FEC01D06984
:100ED0004FCF82389105B1F1B0F48133910509F417
:100EE00075C048F48932910509F469C08A329105C8
:100EF00009F473C008958533910509F459C0893305
:100F0000910501F10895833E9105A9F138F4803EE1
:100F10009105F9F0823E910549F10895863E9105CB
:100F2000A9F1873E9105C9F1843E910519F52091FB
:100F30005B0521FF1FC080915A0584FD14C087EE18
:100F400090E0089520915A052370A1F080EE90E082
:100F5000089520915A0520FD47C030915B0530FF70
:100F600009C024FF44C090E080E004C020915A05ED
:100F700022FDF7CF089520915A0522FD3BC0309104
:100F80005B0530FDE3CF24FFF5CFEDCF20915A056F
:100F900023FFF0CF24FDE7CFD2CF20915A0523FDC8
:100FA0002CC030915B0531FFEECF84EE90E00895C8
:100FB00020915A0525FFDECF89E290E00895209127
:100FC0005A0525FFD7CF85E390E0089520915A0573
:100FD00026FFD0CF8AE290E0089520915A0526FF9F
:100FE000C9CF81E390E0089589E390E0089583EE0E
:100FF00090E0089582EE90E0089586EE90E00895E6
:1010000090915A0592FF06C0282F28712830F9F4D4
:10101000877F846093FF06C0282F28712831F1F460
:10102000877E846120915B0520FF06C0382F3871D0
:101030003830D9F4877F816021FF06C0282F2871BE
:101040002831D1F4877E816194FD877E0895282F11
:1010500024712430F9F68B7F8860DCCF282F24712F
:10106000243101F78B7E8861DDCF382F317131302B
:1010700019F78E7F8860E0CF282F2171213121F769
:101080008E7E8861E1CF08950C94430808950C94F6
:101090004608E82FF0E0EC5BFC4F8081089508954E
:1010A00080EA8A95F1F7089508950E94B009809129
:1010B00040018091400195E0811190E090934F03B1
:1010C00085E0891B80934E03A0E0B2E061E070E010
:1010D0008D91E82FE295EF70F0E041A18F709B01B8
:1010E00001C0220F8A95EAF7922F9095942391A33D
:1010F00082A1822B82A382E0A530B80749F7AAEF2C
:10110000B1E061E070E08D91E82FE295EF70F0E0E2
:1011100041A18F709B0101C0220F8A95EAF7922F9F
:101120009095942391A382A1822B82A382E0A03088
:10113000B80749F7EAE3F3E0A4E4B3E084E493E01A
:1011400011921D928E179F07D9F785E00E945B09C7
:101150000E9418060C94BA090E9492098823F9F09B
:1011600080914E0390E08C5B9C4F0E94CD098111D1
:1011700013C0809141028F5F80934102863050F00E
:10118000E0914E03F0E0EC5BFC4F10821182128282
:10119000138214820C94200610924102FBCF80919E
:1011A0004F0390E08C5B9C4F0E94E8090C9454081C
:1011B0008F929F92AF92BF92CF92DF92EF92FF9267
:1011C0000F931F93CF93DF9380E0A82E82E0B82E79
:1011D0000AE313E0912CCC24C394D12CF501819126
:1011E0005F01C82FC295CF70D0E099A18F707601B2
:1011F00001C0EE0C8A95EAF7892F8E2989A38AA16E
:101200008E2C809488218AA30E945008EAEFF1E096
:1012100050E040E020E03191A32FA295AF70B0E004
:1012200090968C9190E03F7002C0959587953A9585
:10123000E2F780FD3CC08C2D042E01C0880F0A947B
:10124000EAF7282B4F5F5F4F4630510521F789A100
:10125000882289A28AA1E82AEAA2F80180812817B7
:1012600041F1208381E0982A0F5F1F4FF5E0AF1610
:10127000F2E0BF0609F0B2CF60914F0370E06C5B03
:101280007C4F292D45E08AE393E00E945C090E948F
:10129000AC08892DDF91CF911F910F91FF90EF90B6
:1012A000DF90CF90BF90AF909F908F90089580E097
:1012B000C8CF80E0D8CF0895FF920F931F93CF93AC
:1012C000DF93F82E092F162FD72FC42F222349F092
:1012D00081E0809344020E949F1C9093430280937C
:1012E0004202809144028823A1F0809142029091B1
:1012F00043020E94B71C069760F0EF2DF02FA12F3C
:10130000BD2FCE0FDF2FD11DEC17FD0741F410923A
:101310004402DF91CF911F910F91FF900895819129
:101320008D93F2CF80914502811111C08091D80038
:1013300080618093D8008AE18A95F1F700C090918E
:10134000D900892F817090FF82E08093450281E06F
:1013500090914502913009F080E008950C94920933
:101360000E94AE09809340010E94920981110C9461
:10137000C10908950E949209811102C00C94C70905
:10138000089561E070E081E491E00C94201061E048
:1013900070E081E491E00C942910CF93DF93D82F73
:1013A000C92F90E080E00E940211009779F4ED2FA0
:1013B000FC2FDC01A95BBD4F2C9121930196853058
:1013C0009105B9F781E0DF91CF91089580E0FBCFDF
:1013D00030E020E0FC014191CF01F901E95BFD4FD4
:1013E00040832F5F3F4F25303105A1F70895CF92FD
:1013F000DF92EF92FF920F931F93CF93DF936C01D5
:101400007B0164E670E088E70E94DA0EEC0197FD4C
:1014100012C010E000E0F601E00FF11F849164E6D5
:1014200070E00E94360FEC01892B29F40F5F1F4FEB
:101430000E151F0581F70E94B90FCE01DF91CF91E4
:101440001F910F91FF90EF90DF90CF900895E0E50E
:10145000F3E080E092E0DF019C011D9221503040DA
:10146000E1F7F0935505E09354058FEF9FEF9093CC
:1014700078028093770208950E94A30580937302F7
:1014800080FD0FC080E8809372020E94D40E6DE050
:1014900070E08BE193E00E94F709892B21F080E056
:1014A000089580E2F0CF8091730263E070E081FDE7
:1014B00026C088E193E00E94F709892B81F76DE04F
:1014C00070E088E093E00E94F709892B41F70E94C1
:1014D000AB1C605A75418F4F9F4F609350057093BE
:1014E000510580935205909353050E94270A81E08D
:1014F000809376028093750210927402089585E1BC
:1015000093E0D9CF2091720236E0839FC00111246D
:10151000629F800D911D1124811522E0920714F025
:1015200090E080E0805B9C4F90935505809354053C
:10153000089520915405309155052A543340409127
:101540007202642F70E0C9010E944826481B463091
:1015500010F4240F311D211582E0380710F030E01F
:1015600020E0205B3C4F30935505209354050895AF
:101570001F93CF93DF93162F8A3031F481E0DF91F0
:10158000CF911F910C94320B8D3011F480E0F7CF86
:10159000C0915405D091550596E0FE01ACE4B2E04F
:1015A00001900D929A95E1F7803EC8F086E0FE0129
:1015B00011928A95E9F711111EC0C0915405D0917E
:1015C000550546E050E0BE018CE492E00E947F2683
:1015D000892BF9F4DF91CF911F910C94990AF6E0D1
:1015E0008F9FB0011124685D7C4F46E050E0CE0132
:1015F0000E947626E0CFE0915405F09155059F01B9
:101600002A5F3F4F2E173F07C1F28081809581935B
:10161000F9CFC055D340CE0125E0969587952A9500
:10162000E1F721E030E0A90102C0440F551F8A957F
:10163000E2F7CA014091770250917802842B952BF2
:10164000269645E0D695C7954A95E1F702C0220F48
:10165000331FCA95E2F7822B932B909378028093E5
:101660007702B8CFCF93382FE0915405F09155050C
:10167000E055F34020917202622F70E0CF010E948A
:101680004826281B822F332369F066E00E943C26FF
:10169000C82FC15010F4CF91089560E080E20E94FD
:1016A000B80AF7CF9F01280F311D2115324018F0DD
:1016B00080E0F0E0E0E08E0F9F2F911D805B9C4F5B
:1016C0009093550580935405E6CFFF920F931F9397
:1016D000CF93DF93EC01F62EFC0101900020E9F797
:1016E0008F0101501109C017D10730F0DF91CF9160
:1016F0001F910F91FF9008956F2D89910E94B80A54
:10170000F2CF0E94650B81E00C94320B0E94AB1C5F
:10171000605A75418F4F9F4F6093500570935105EC
:10172000809352059093530580917502811108C0F2
:1017300062E070E086E093E00E94F709892B19F0DF
:1017400080917502089581E080937502F9CF2F9200
:101750003F925F926F927F928F929F92AF92BF92D1
:10176000CF92DF92EF92FF920F931F93CF93DF936D
:1017700020917702309178022115310531F0809166
:10178000740261E070E0882399F0DF91CF911F919E
:101790000F91FF90EF90DF90CF90BF90AF909F9010
:1017A0008F907F906F905F903F902F9008958F5F04
:1017B000082F10E01B01082E02C0220C331C0A94D3
:1017C000E2F7A10142235323452B89F39091730241
:1017D00090FD44C08295880F807680934B019801DC
:1017E000369527953695279520934E01815E8093F7
:1017F0004C0110924F0124E630E047E050E069E4EC
:1018000071E088E70E94650F892B09F0BECFA8011F
:1018100025E0440F551F2A95E1F78091730280FD62
:101820002BC0405B5C4F04E610E020E230E060E457
:1018300088E70E948C0F892B09F0A7CF0E94860BA6
:10184000E101C095D0958091770290917802C823EC
:10185000D923D0937802C093770297CF880F880F4F
:10186000880F80934B0110924E01895F80934C0149
:1018700083E080934F01BFCFE2E5F2E080E2DF0139
:101880001D928A95E9F7AEE0B2E00AE012E082E14B
:10189000C82E82E0D82E97E0592E772473948D912C
:1018A000E80129918E01240F352F311D205B3C4F1B
:1018B000E82FF0E0EE5AFD4F90E080E0652C681ACA
:1018C000872C082E01C0880C0A94EAF77901A12C14
:1018D000E701B9907E01B820662D6A196770962ECF
:1018E000062E000C770BDB2D01C0DD0F9A94EAF772
:1018F0007195619571096770772701C0B6946A95F3
:10190000EAF7BD2A6081962E9B289082A39468E016
:10191000A612DECF019631968830910579F6CA1667
:10192000DB0609F0BCCF04E610E020E230E042E53F
:1019300052E07DCF80917502882369F062E070E00B
:1019400084E093E00E94F709892B19F080917502D9
:101950000895109275028091750291E0892708958B
:101960000F931F9380917602882301F160E080E05D
:101970000E94820A0E94AD050E94A70B8091750209
:101980008823A1F00E94AB1C0091500510915105D5
:101990002091520530915305601B710B820B930B04
:1019A00097FD04C01F910F910C949A0C1F910F91F9
:1019B00008950F931F93CF93DF93C62FD42F022F39
:1019C000FC0182818823C9F060937B020E949F1CE6
:1019D00090937A028093790280E28C0F883008F02D
:1019E00050C0C77081E001C0880FCA95EAF7DF9147
:1019F000CF911F910F910C943F1310917B021613FE
:101A000035C08091790290917A020E94B71C843689
:101A1000910560F5C0E2CD0F1D17B9F080E2810F8E
:101A2000883040F4177081E001C0880F1A95EAF7FA
:101A30000E944613C83048F481E09D2F977001C082
:101A4000880F9A95EAF70E943F13802F0E942C136B
:101A5000C830B8F4D77081E001C0880FDA95EAF792
:101A6000DF91CF911F910F910C94461380E28C0F60
:101A7000883038F4C77081E001C0880FCA95EAF752
:101A8000EFCFDF91CF911F910F9108959C01CB0172
:101A9000233F4CE5340731F190F4283DFCE53F0746
:101AA000E9F0293D4CE5340769F1273D3C4579F4DF
:101AB00026E241EE61EE0E94D90C80E00895253FB8
:101AC000FCE53F07B9F090F0263F3C45B9F0FC013A
:101AD00082818823D1F010927B02089527E245EE9F
:101AE00065EEE9CF26E241EE60EEE5CF27E245EE76
:101AF00064EEE1CF26E241EE62EEDDCF27E245EE75
:101B000066EED9CF28E241E0EBCF81E00895CF9394
:101B1000DF93EC01FB018281882309F419C1C230F3
:101B2000FCE5DF07C0F1C6319CE5D90730F09E0126
:101B30002A5F3C452930310570F50E94371B909390
:101B40005B0580935A05C031ECE5DE0709F4CFC090
:101B500008F05BC0C8308CE5D80709F4B6C088F53A
:101B6000C430ECE5DE0709F4A8C0C0F4C2308CE54F
:101B7000D80709F49CC080915A058260C330DC45C7
:101B800009F498C080915A0590915B050E94451B0D
:101B90000E948A1580E0DF91CF91089580915A05C7
:101BA0008061C630ECE5DE0709F484C080915A05F7
:101BB0008860C730DC4508F47DC080915A0580629A
:101BC00079C0CC308CE5D80709F489C070F48091D5
:101BD0005A058C60CA30ECE5DE0709F46BC008F4E6
:101BE00078C080915A058E7F65C0CE308CE5D807CD
:101BF00009F479C080915A058B7FCF30DC4508F419
:101C000059C080915A058F7E55C0CB3FECE5DE0769
:101C100009F457C030F5C3318CE5D80709F46FC01B
:101C200078F4C131ECE5DE0709F465C0C231DC456A
:101C300009F0A8CF0E948A1580915A058F773AC083
:101C4000C5318CE5D80709F462C008F476C08091EC
:101C50005B058160CA3FDC4509F094CF80935B054A
:101C600091CFCF3FFCE5DF0709F44DC088F48091A8
:101C70005B058D7FCD3F9CE5D90781F380915B05A6
:101C80008E7FCE3FDC4550F380915B058360E6CFCD
:101C9000C130FDE5DF0709F459C008F444C080E015
:101CA000C230DD4509F06ECF0E94C31B6BCF80911F
:101CB0005A05816080935A0565CF80915A058460EA
:101CC000F9CF80915B058260C9CF80915A0580640D
:101CD000F1CF0E948A1580915A058068EBCF8091E0
:101CE0005A058D7FE7CF80915A05877FE3CF80919A
:101CF0005A058F7DDFCF80915A058F7BDBCF809196
:101D00005A05837FD7CF80915B058C7FA7CF8091C9
:101D10005A0582FB992790F921E0922790FB82F9DE
:101D200090FB83F9C7CF80915B05982F90959170B8
:101D30008E7F892B90FB81F991CF0E948A1590911B
:101D40005A05892F97FB87F98058B4CF81E0ACCF33
:101D500081E021CFCF93DF93EB0186319C4511F5D4
:101D60000E94821A9A81992399F08A7A91E009F463
:101D700090E090937C02811109C089E20E945D1A73
:101D80000E94C11A80E0DF91CF91089585E3F6CFDC
:101D900080917C02811104C089E20E94641AF0CF14
:101DA00085E3FBCF81E0EFCF1092B9008CE0809308
:101DB000B8000895EF92FF920F931F93CF93DF9394
:101DC000182FEB011092BC0084EA8093BC000E94A3
:101DD0009F1C7C018091BC0087FF27C08091B900C7
:101DE000887F883029F08091B900887F8031D9F5CB
:101DF0001093BB0084E88093BC000E949F1C8C0160
:101E00008091BC0087FF24C02091B900287F90E01A
:101E100080E02831B1F081E090E0203411F490E0CE
:101E200080E09195819591090CC0CF3FDC0791F23C
:101E30000E949F1C8E199F098C179D0758F28EEFE8
:101E40009FEFDF91CF911F910F91FF90EF90089539
:101E5000CF3FDC07A9F20E949F1C801B910B8C17BF
:101E60009D0770F2ECCF8FEF9FEFEBCF0F931F9397
:101E7000CF93DF93EB018093BB0084E88093BC0099
:101E80000E949F1C8C018091BC0087FF11C0209193
:101E9000B900287F81E090E0283211F490E080E0E2
:101EA000919581959109DF91CF911F910F9108959F
:101EB000CF3FDC0741F30E949F1C801B910B8C17C6
:101EC0009D0708F38EEF9FEFEECFCF92DF92EF9258
:101ED000FF920F931F93CF93DF936B018A017901D8
:101EE000B9010E94DA0EE6010C0D1D1DC017D107C5
:101EF00061F424E92093BC00DF91CF911F910F91F1
:101F0000FF90EF90DF90CF90089597FDF2CFB7014B
:101F100089910E94360FEACFCF92DF92EF92FF9223
:101F20000F931F93CF93DF93C62F6A017901B801F6
:101F30000E94DA0E97FD0CC0B8018C2F0E94360F5C
:101F4000E601EC0CFD1CCE15DF0511F097FF0CC06F
:101F500024E92093BC00DF91CF911F910F91FF9056
:101F6000EF90DF90CF900895B80189910E94360FCD
:101F7000EACF84E98093BC0008958EE14A9B02C0B9
:101F80008150E1F74A9BFECF08955A9880E28A95E6
:101F9000F1F75A9A0895FC013BE03A95F1F720E0F9
:101FA00090E080E031E040E14A95F1F7880F4A9BEC
:101FB00002C08160232742E04A95F1F7000040E12A
:101FC0004A95F1F79F5F6913EECF90E19A95F1F78B
:101FD00099B132E03A95F1F7000040E14A95F1F706
:101FE00092FB992790F992272081920F9083089570
:101FF000EF92FF920F931F93CF93DF930F92CDB782
:10200000DEB719828C017C01E60EF11C0E151F054E
:1020100061F481E09981911180E00F90DF91CF917F
:102020001F910F91FF90EF9008950E94BD0F68E0FF
:10203000CE0101960E94CB0FF80181938F01E6CF6C
:1020400090937F0280937E0260937D02529A5A9A07
:10205000089590937F0280937E0260937D02529850
:102060005A9AEA9AE9E6F0E080818F7C80830895AD
:102070006150770B91E001C0990F6A95EAF720E073
:1020800031E0911108C0222391F05A9A80E28A959A
:10209000F1F75A980895492F482339F05A9A23277F
:1020A00040E24A95F1F79695ECCF5A98F9CF5A98B5
:1020B000EDCFFF920F931F93CF93DF93EC018C0131
:1020C000060F111DC017D10731F4DF91CF911F9179
:1020D0000F91FF900895F9900E94C50F68E08F2D31
:1020E0000E943810EFCF1F920F920FB60F9211245B
:1020F0000F931F932F933F934F935F936F937F9310
:102100008F939F93AF93BF93EF93FF93CF93DF93FF
:102110000F92CDB7DEB719820E94BD0F67E0CE01E6
:1021200001960E94CB0F082F069506950695982FCD
:1021300092959570202F2570920F292F23709695D8
:1021400096958770920F891344C08981811141C08F
:1021500080917D028017E8F120E12A95F1F75A9AE3
:10216000529A82E08A95F1F700C0A8E00A9FC00168
:10217000112400917E0210917F02080F191F5A98B6
:10218000F8016581662321F0868197810E945910AC
:102190000E94C50FF0E1FA95F1F75A9852985A9AB1
:1021A00020E12A95F1F7D80112966C9112976623D7
:1021B00031F113968D919C910E94F80FD801ED9109
:1021C000FC91882311F088E001C082E080830E94A6
:1021D000BD0F0F90DF91CF91FF91EF91BF91AF9124
:1021E0009F918F917F916F915F914F913F912F912F
:1021F0001F910F910F900FBE0F901F901895ED91AA
:10220000FC91E1CF0F931F93CF93DF9320917D0239
:10221000281719060CF471C08C0193E0000F111FF0
:102220009A95E1F7C0917E02D0917F02C00FD11F35
:10223000F894529A5A9825E02A95F1F70000982FC1
:10224000969595708570980F892F837096959695C1
:10225000980F092B0E94C50F00C067E0802F0E94D5
:10226000381080E18A95F1F752985A9A4A9B17C024
:1022700087E090E04A9915C06D81662321F18E8137
:102280009F810E94F80F81111EC0529A5A9AE881CC
:10229000F98182E08083789482E090E00DC000C0F4
:1022A000E5CF019771F4529A5A9AE881F98181E059
:1022B0008083789481E090E0DF91CF911F910F911E
:1022C000089500C0D7CF0E94BD0F20E22A95F1F7F4
:1022D0005A98529A80E18A95F1F76A81662321F033
:1022E0008B819C810E9459100E94C50FE881F98161
:1022F0001082789490E080E0DFCF84E090E0DCCF43
:1023000090938502809384020895E0918402F09175
:102310008502309721F00190F081E02D099480E052
:102320000895E0918402F0918502309721F00280B7
:10233000F381E02D09940895E0918402F0918502E3
:10234000309739F022E0DC012C930480F581E02DF8
:102350000994089520918202309183022817390749
:1023600071F09093830280938202E0918402F09155
:102370008502309721F00680F781E02D09940895B9
:1023800020918002309181022817390771F09093D3
:10239000810280938002E0918402F091850230975F
:1023A00021F00084F185E02D0994089585B78068B7
:1023B00085BF85B7806885BF0895089508950C94FA
:1023C000DD1108950C94E1110E94D6110E94DE11D6
:1023D0000C94DF110C9492090E94961C0E945508DF
:1023E00080E00E943C0A0E94FB1C0C94E2119F9228
:1023F000AF92BF92CF92DF92EF92FF920F931F9313
:10240000CF93DF93CDB7DEB72A970FB6F894DEBF30
:102410000FBECDBF0E94D808C82E0E94EA118823A3
:1024200009F466C087E8A82E82E0B82E10E000E02C
:10243000902E802F0E944908E82EF501D1905F016F
:10244000D81609F44FC08091070381FD0E944F0800
:1024500080E0FF24F394DE249D2D9F2109F43DC0EC
:102460008E839F82EF2081E009F480E088870E94BC
:102470009F1C8160782F9A8789874E815F8168854C
:102480008A850E949B12F801E957FD4F8081F8264A
:10249000F0820E94B00CC1100E94860B0E94881E20
:1024A0000E94851190918602891799F10E948511E9
:1024B000809386022A960FB6F894DEBF0FBECDBF7A
:1024C000DF91CF911F910F91FF90EF90DF90CF9010
:1024D000BF90AF909F900C9429068F5FFF0C8630C1
:1024E00009F0BACF0F5F1F4F0A30110509F0A0CFD6
:1024F0008FEF89838A831B820E949F1C8160782FC3
:102500009D838C8349815A816B818D810E949B12AE
:10251000C0CF2A960FB6F894DEBF0FBECDBFDF91B5
:10252000CF911F910F91FF90EF90DF90CF90BF90D0
:10253000AF909F900895CF93DF93CDB7DEB72B97E1
:102540000FB6F894DEBF0FBECDBF4F8358876987A3
:102550007A878B871E821D8285E0FE013796DE0119
:10256000119601900D928A95E1F749815A816B810C
:102570007C818D819E812B960FB6F894DEBF0FBEB5
:10258000CDBFDF91CF910C94EE17FC01808191813A
:102590000C942F1ACF93C82F882369F18CEF8C0FDE
:1025A000813AA0F46C2F80915001909151010E94CA
:1025B000DA1B882329F08C2F0E94641A0E94C11A0A
:1025C0008C2F0E945D1ACF910C94C11A80E28C0F5F
:1025D000883048F4C77081E001C0880FCA95EAF7D7
:1025E0000E94851AF0CFC03F30F08C2F0E94961DBC
:1025F000CF910C947D1ECF910895882361F19CEFBB
:10260000980F913A20F40E94641A0C94C11A90E237
:10261000980F983050F4877091E001C0990F8A9517
:10262000EAF7892F0E948B1AF0CF9BE5980F933021
:1026300020F490E080E00C94AA1198E5980F97316F
:1026400020F490E080E00C94C011803F20F00E94C4
:10265000FE1D0C947D1E0895CF93C82F0E94CA12B0
:10266000C93349F42FEF87EE93E02150804090402A
:10267000E1F700C000008C2FCF910C94FD1288234D
:1026800021F00E94851A0C94C11A0895882321F024
:102690000E948B1A0C94C11A0895BF92CF92DF92B8
:1026A000EF92FF920F931F93CF93DF936C01D62F7E
:1026B000C72FFC01058102950F70128111110E9434
:1026C000A21A0E947B1AE82E882391F01123E9F0C8
:1026D0008C2F807F803421F080E28D0F8830A8F02D
:1026E00082E00E940C1B0E947B1A91E0E82EE926F2
:1026F000BC2EB2949FE0B922FBE0FB15A8F1EB2DB4
:10270000F0E0E355F64D0C947026E12CF1CF0C2F40
:102710000F70C07F11F00295007F1123A9F00023F4
:1027200059F080E28D0F883010F0D11109C0802F50
:102730000E94851A0E94C11A8D2F0E94CA1214C0CD
:10274000802F0E94951AF6CF8D2F0E94FD12002334
:1027500059F080E28D0F883010F0D1112CC0802FFD
:102760000E948B1A0E94C11A2B2D2850330B243043
:10277000310520F40E9485110E942906EE2009F4FB
:1027800072C10E94771A80FD6EC1F60112820E940A
:10279000711A0E94FA18C6010E9454150E94711AFB
:1027A000DF91CF911F910F91FF90EF90DF90CF902D
:1027B000BF900C941B19802F0E949B1AD3CF2C2FF3
:1027C0002F70F22EC07FC03219F0F29480EFF82201
:1027D000DD2369F0D13049F1112391F1002351F14A
:1027E000F601858180FFA8CF8F70858323C01123D8
:1027F00081F0011106C00E94A81A8F290E943F1380
:10280000B3CF0130C1F70E94A81A8F290E94AE1AD7
:10281000ABCF011106C00E94B71A8F2D0E9446133C
:10282000A3CF013009F4A0CFF6CF112329F0063051
:1028300008F09ACF8F2DE2CF053008F095CFEDCF7D
:10284000002359F3D93349F4FFEF27EE33E0F15079
:1028500020403040E1F700C000008D2F0E94FD12A3
:1028600083CF8D2F112329F00E94961D0E947D1E7B
:102870007BCF0E94FE1DFACF8C2F837009F041C0E0
:10288000111172CF4D2F429546954770440F440F5A
:102890000D2F0F7010E030E020E0042E04C0000F78
:1028A000111F221F331F0A94D2F760E070E0CB01A2
:1028B000D4FF0FC06FE070E080E090E004C0660FCE
:1028C000771F881F991F4A95D2F76095709580955C
:1028D0009095C695C695C370602B712B822B932B58
:1028E000C23049F058F4C13019F00E94AC183CCF06
:1028F0000E949A1839CF0E94BE1836CF0E949818AD
:1029000033CF8695112311F08C2F8170882309F421
:102910002BCF4D2F429546954770440F440F0D2FF6
:102920000F7010E030E020E0042E04C0000F111FF3
:10293000221F331F0A94D2F760E070E0CB01D4FF6E
:102940000FC06FE070E080E090E004C0660F771F7A
:10295000881F991F4A95D2F760957095809590953C
:10296000C695C695C370602B712B822B932BC230FA
:1029700049F058F4C13019F00E947119F5CE0E9447
:102980005F19F2CE0E948319EFCE0E94D418ECCECC
:10299000CF70112329F08C2F0E94FA188D2F2ECF83
:1029A0008D2F0E9446138C2F0E941B19DDCED23F23
:1029B00089F160F4D03FC9F0D13F29F1112309F426
:1029C00042C00111B9CE8C2F8F7121C0D33F39F194
:1029D000D43FA1F7112369F1CF718C2F0E94FA180F
:1029E00063E08C2F0E94F71ABFCE112341F005300F
:1029F00008F0BACE8C2F8F710E943E19B5CE0630EA
:102A000008F0B2CEF7CF8C2F8F71112369F20E949C
:102A1000FA18AACE8C2F8F711123C9F3C5CF1123B9
:102A200029F08C2F8F710E94E5189ECE0E94E0182D
:102A30009BCE81E00E940C1B023008F495CE82E010
:102A40000E940C1B91CE002359F0D93309F005CF19
:102A50008FEF97EEE3E081509040E040E1F7FBCE4E
:102A60008C2F8F71A1CFDF91CF911F910F91FF908C
:102A7000EF90DF90CF90BF9008950F931F93CF9367
:102A8000DF93EC01688179818A810E94391A8C0177
:102A90000E9495190E949718B801CE01DF91CF913D
:102AA0001F910F910C944D13CF93DF93EC018B8109
:102AB0009C81892B29F08881998189238F3F59F442
:102AC000DF91CF910895CE010E943D15CE01DF9197
:102AD000CF910C940D06CE010E9441068111F3CFD7
:102AE0000E947B1A882361F38A81882349F382E05C
:102AF000DF91CF910C940C1B0E94A21A0E94A51A80
:102B00000E94C11A0E94A21F0C947D1E0E946B1A83
:102B10000C947C150E94921A0C948615E92FE2956C
:102B2000EF70E250EE3070F4F0E0E754F64D0C94A4
:102B30007026803F19F020F4883E20F481E008954B
:102B4000843FE1F380E00895883EC0F3813FD1F7F0
:102B5000F5CF93FB882780F908950E942F1A0C94D3
:102B60008E15CF93DF9300D000D00F92CDB7DEB794
:102B70000F900F900F900F900F90DF91CF910895CD
:102B8000CF93DF9300D000D000D0CDB7DEB726962C
:102B90000FB6F894DEBF0FBECDBFDF91CF91089581
:102BA0001F93CF93DF93C091920216E0809193021E
:102BB0008C1304C0DF91CF911F910895D0E01C9F2A
:102BC000F0011D9FF00D1124EC56FD4F4081518105
:102BD00062817381848195810E94C0152196C7709E
:102BE000E5CF4091C4025091C5026091C602709138
:102BF000C7028091C8029091C9020C94C0151F931E
:102C0000CF93DF938091C902807FA9F48091C6029F
:102C1000882389F080919202C09193026091C4024E
:102C20007091C502A091C702B091C802D62FD723D8
:102C300016E0C81304C0DF91CF911F91089590E072
:102C4000109711F0DF3F19F401968770F2CF189FAB
:102C50009001199F300D1124F901EC56FD4F41816F
:102C60004713F2CF40814613EFCF42814111ECCFA1
:102C7000438154814A1B5B0B4436510528F78091F0
:102C8000C9028F7080618093C902F901E756FD4F38
:102C900080818F708061808384EC92E00E94541563
:102CA000DF91CF911F910C94D015AF92BF92CF922C
:102CB000DF92EF92FF920F931F93CF93DF93CDB7E5
:102CC000DEB761970FB6F894DEBF0FBECDBF8C01A3
:102CD00085E0F801DE011D9601900D928A95E1F7DD
:102CE000F80140815181E28084ECC82E82E0D82E28
:102CF0006091C7027091C8026115710509F44FC156
:102D00009091C4022091C502892F82238F3F09F43C
:102D100046C1A380B480F090C602F501E61BF70B14
:102D2000FF2009F40AC18091C902382F307FE436B0
:102D3000F10508F0C0C0311179C0FE2C251323C065
:102D4000941321C0E1101FC08F7080618093C9026D
:102D50000E94F115C6010E9454158091C902F80124
:102D600085838F2D61960FB6F894DEBF0FBECDBF61
:102D7000DF91CF911F910F91FF90EF90DF90CF9057
:102D8000BF90AF900895AB2829F0842F85238F3F03
:102D900009F021C180E0F82FF170DF2E80FF3CC0E8
:102DA000809192022091930236E0821315C04D87E4
:102DB0005E878D859E850E942F1A292F22952F7060
:102DC0002230F0F0243018F59F70F1F0F801958171
:102DD000907FD1F4D12C1EC090E0389FF001399F34
:102DE000F00D1124EC56FD4F6181651306C0608122
:102DF000641303C062816E110FC001968770D5CF36
:102E00009F7011F0882331F3805E883018F3C80179
:102E10000E945415FD2CA5CFEE2009F4A2CF80917D
:102E2000C90281608093C902F12C9BCF251314C085
:102E3000941312C0E11010C0F8018583C8010E94EC
:102E4000541586E0F801A4ECB2E001900D928A9549
:102E5000E1F70E94F11585CF4D875E878D859E85B0
:102E60000E94AD15882319F1EE2009F18091C90265
:102E7000803270F02091C4023091C50238872F83D0
:102E80001986BB86AA868C87CE0107960E945415A8
:102E900086E0F801A4ECB2E001900D928A95E1F78A
:102EA0000E94FF150E94F115FF24F3945ACFC80128
:102EB0000E945415F9CF311113C07A2DB98AA88A0E
:102EC0006E2D89890E94B11584EC92E00E94541500
:102ED00086E0F60111928A95E9F70E94F115A4CFD8
:102EE00025130FC094130DC0E1100BC0F8018583AA
:102EF000C8010E94541586E0F60111928A95E9F7FF
:102F000030CF4D875E878D859E850E94AD158823C5
:102F100071F2EE2061F28091C902803208F4B8CFDC
:102F20002091C4023091C5023A8329831B82BD825D
:102F3000AC828E83CE010196A9CFE436F10510F55F
:102F4000FE2CEE2009F4B3CF25130BC0941309C057
:102F500086E0F801A4ECB2E001900D928A95E1F7C9
:102F600000CF4D875E878D859E850E94AD158111AE
:102F70008FCF8091C90281608093C902C8010E94ED
:102F80005415EFCE7A2DB98AA88A6E2D89890E94B0
:102F9000B11586E0F60111928A95E9F75ACFEE2035
:102FA00009F485CF4D875E878D859E850E94AD157E
:102FB000F82E882309F47BCF86E0F801A4ECB2E078
:102FC00001900D928A95E1F784EC92E00E94C5127F
:102FD0000E94FF153ECF81E08E25DDCE1F93CF935B
:102FE000DF93CDB7DEB72C970FB6F894DEBF0FBED8
:102FF000CDBF4F83588769877A878B879C87CE019F
:1030000007960E945516882369F08A859B85892B2F
:1030100039F04F815885842F85238F3F09F071C087
:1030200016E05FC086E0FE013796DE011196019042
:103030000D928A95E1F78A859B85892B89F388858E
:103040009F8189238F3F61F32091930230E0C90172
:10305000019687709927409192024817190671F4DA
:103060000E948A15109293021092920286E0E4EC7C
:10307000F2E0DF011D928A95E9F7D2CF96E0929FA8
:10308000D001939FB00D1124AC56BD4FFE01319677
:1030900001900D929A95E1F7809393020E94D015CA
:1030A000BFCF819FC00111248C569D4F0E945516A1
:1030B0008823E9F0E09192021E9FF0011124EC5662
:1030C000FD4F4081518162817381848195810E948D
:1030D000C0158091920290E00196877099278093A5
:1030E000920280919202909193028913DACF2C96EA
:1030F0000FB6F894DEBF0FBECDBFDF91CF911F9109
:10310000089569857A858B859C850E94C01588CF36
:1031100008950C9488180E9489186093F6027093A1
:10312000F7028093F8029093F9020C947C150895AD
:103130000C948B180F931F930091F6021091F702D5
:103140002091F8023091F902602B712B822B932B86
:103150001F910F910C948B180F931F930091F602FF
:103160001091F7022091F8023091F9026023712347
:10317000822393231F910F910C948B180F931F930D
:103180000091F6021091F7022091F8023091F902B5
:1031900060277127822793271F910F910C948B181A
:1031A0000C9488180C94D0180E94D2186093F202E4
:1031B0007093F3028093F4029093F5020C947C15C3
:1031C00060E070E0CB010C94D4180F931F9341E0A2
:1031D00050E060E070E08A019B0104C0000F111F05
:1031E000221F331F8A95D2F7C901B8011F910F9191
:1031F0000C94D4180F931F9341E050E060E070E00E
:1032000004C0440F551F661F771F8A95D2F780911F
:10321000F2029091F302A091F402B091F5028A01BA
:103220009B01082B192B2A2B3B2BC901B8011F919D
:103230000F910C94D4180F931F9341E050E060E07D
:1032400070E004C0440F551F661F771F8A95D2F7A0
:10325000CB01BA0160957095809590950091F2022E
:103260001091F3022091F4023091F5026023712352
:10327000822393231F910F910C94D4180F931F93C3
:1032800041E050E060E070E004C0440F551F661F4D
:10329000771F8A95D2F78091F2029091F302A09164
:1032A000F402B091F5028A019B01082719272A2709
:1032B0003B27C901B8011F910F910C94D4180F93AB
:1032C0001F930091F2021091F3022091F4023091C9
:1032D000F502602B712B822B932B1F910F910C9475
:1032E000D4180F931F930091F2021091F3022091D2
:1032F000F4023091F50260237123822393231F91FE
:103300000F910C94D4180F931F930091F202109117
:10331000F3022091F4023091F50260277127822791
:1033200093271F910F910C94D4180895E92FEE0F55
:10333000E90FEE0F8E0F982F977041E001C0440FF8
:103340009A95EAF786958695869595E0899FF0018E
:103350001124E653FD4F30E020E070E05191DF0191
:103360001197CB01022E02C0969587950A94E2F739
:10337000817081958527842385278C932F5F3F4F0C
:103380002530310559F70895E92FEE0FE90FEE0FBB
:103390008E0F982F977086958695869525E0829F4B
:1033A000F0011124E653FD4F50E040E080E0219110
:1033B00030E0092E02C0369527950A94E2F7217075
:1033C0003327042E01C0220F0A94EAF7822B4F5FA5
:1033D0005F4F4530510559F70895BF92CF92DF9264
:1033E000EF92FF920F931F93CF93DF938C01C090C6
:1033F000F202D090F302E090F402F090F502809196
:10340000F6029091F702A091F802B091F902C82A51
:10341000D92AEA2AFB2ACFE1D0E0BC2ED701C60187
:103420000C2E04C0B695A795979587950A94D2F768
:1034300080FD0EC0219788F7B12C8B2DDF91CF91A5
:103440001F910F91FF90EF90DF90CF90BF90089564
:10345000B8018C2F0E949106019761F3EECFCF93B4
:10346000DF93EC010E94ED19BE01DF91CF910C9426
:1034700091061F93CF93DF93EB01909191029923D3
:1034800031F0CB01DF91CF911F910C942F1A88233B
:1034900079F0CB010E94ED19182F682FCE010E9400
:1034A0009619BE01812FDF91CF911F910C94910647
:1034B000CB010E94C419182FF4CF682F80915001BE
:1034C000909151010C94101C682F809150019091A3
:1034D00051010C94121C80915001909151010C9457
:1034E000141C8091FA0285958595859508958091A3
:1034F000FA02877008959091FA02977081E009F4BA
:1035000080E0089580910603089590910603892B29
:1035100080930603089580959091060398239093D5
:103520000603089510920603089590910503892BD0
:1035300080930503089580959091050398239093B7
:103540000503089510920503089510920403089549
:103550008091FB02089508950C94AB1A9091FB02A0
:10356000981721F08093FB020C94AC1A0895809177
:10357000FB02882329F01092FB0280E00C94AC1A25
:103580000895E0915001F0915101809106038083EC
:10359000E0915001F0915101808190910503892BB8
:1035A0008083E0915001F09151018081909104035A
:1035B000892B80839091FB02992381F0E091500147
:1035C000F09151018081892B8083809150019091ED
:1035D00051010E94C81B81110E94B71A80915001AD
:1035E000909151010C94911108950C94F41A98E063
:1035F000899F90011124622B6093FA020E94FA18AD
:103600008091FA028595859585950C94F51A10920E
:10361000FA0280E00C94F51A9091FA0280958923C1
:103620008093FA02282F277071F4282F082E000C9F
:10363000330B9217130639F08595859585950E9471
:103640001B190C94071B089590E080E00E943A2912
:1036500021E08C3E9E4F09F020E0822F089582E009
:1036600090E00C94322983E090E00C943229CF93BF
:1036700084E090E00E943229C82F81E290E00E940D
:103680003229982F8C2FCF910895CF93C92F682F6F
:1036900084E090E00E9440296C2F81E290E0CF917D
:1036A0000C944029AB01BC018FE090E00C945229AE
:1036B000AB01BC0183E190E00C94522960E070E022
:1036C000CB010C94581B60E070E0CB010E94521BB0
:1036D0000C945E1B6CEE7EEF90E080E00E945E2911
:1036E00060E082E090E00E94402960E083E090E0AA
:1036F0000E9440291092F6021092F7021092F802EE
:103700001092F90260E084E090E00E94402960E0BD
:1037100081E290E00E94402960E085E090E00E9414
:10372000402960E086E090E00E9440296FEF87E04A
:1037300090E00E94402940E050E0BA0188E090E02B
:103740000E94522960E08DE090E00E94402940E014
:1037500050E0BA0188E190E00E94522960E087E1E0
:1037600090E00E94402940E050E0BA018CE190E0F6
:103770000E94522960E080E290E00E9440290C946F
:10378000631B0C946A1B682F8EE090E00C94402918
:103790009C012E5F3F4FAC01485F5F4F80E02417D4
:1037A000350709F40895F90191919F019923B9F31F
:1037B0008F5FF5CF662349F0FC0132960896219180
:1037C000261729F0E817F907D1F780E0089581E07E
:1037D00008959C01FC0132969FEF80E041914617CD
:1037E00051F09F3F19F4411101C0982F8F5F86302F
:1037F000A9F79F3F09F40895290F311D97FD3A95C8
:10380000F90162830895FC013296089621912613EE
:1038100003C0DF0111971C92E817F907B9F7089563
:103820000C94E91B0C94031C029626E0FC011192F7
:103830002A95E9F70895089508950C941C1C0E9498
:103840001D1C80916005843049F11092080388E1C5
:1038500090E020E40FB6F894A895809360000FBE26
:103860002093600080E00E9429060E941D1C83B7FF
:10387000817F846083BF83B7816083BF789488959C
:1038800083B78E7F83BF0FB6F894A89580916000B0
:10389000886180936000109260000FBE08950895C3
:1038A000CF930E941B1C0E94D8080E944F1CC0E0AE
:1038B0008C2F0E944908811105C0CF5FCA30C1F723
:1038C000CF91089581E0FCCF08950C94641C0E9470
:1038D0008A150E9485110E9429060C94651C1F926E
:1038E0001FB61F9211248F939F93AF93BF93809124
:1038F0000803811113C08091560590915705A0913E
:103900005805B09159054196A11DB11D80935605EA
:1039100090935705A0935805B0935905BF91AF9167
:103920009F918F911F901FBE1F90189582E084BDBC
:1039300093E095BD9AEF97BD80936E0008952FB7E1
:10394000F8948091560590915705A0915805B09133
:1039500059052FBF08952FB7F894609156057091BF
:10396000570580915805909159052FBF08959C01E6
:103970004FB7F8948091560590915705A09158053E
:10398000B09159054FBF821B930B089578941F92F5
:103990001FB61F9211248F939F93AF93BF93809173
:1039A000560590915705A0915805B091590501967B
:1039B000A11DB11D8093560590935705A0935805FE
:1039C000B0935905BF91AF919F918F911F901FBEEA
:1039D0001F90189587E797E7909301088093000858
:1039E00088E19AE00FB6F894A895809360000FBE26
:1039F00090936000FFCF0E94241B811102C00E949F
:103A0000C11B0E942F1B809307030E94371B9093BA
:103A10005B0580935A050E94331B682F70E090E08D
:103A200080E00C9498188091100380FF12C0609180
:103A3000570185E0689FB0011124759567957595CC
:103A4000679560387105A8F561157105A1F1862F9C
:103A5000089581FF09C06091570185E0689FB0011A
:103A6000112475956795EDCF6091570182FD0AC0CD
:103A700080910F038823D1F09091560160915701F6
:103A8000891728F085E0689FB0011124DACF869F5E
:103A9000B001112485E0869F9001879F300D11248D
:103AA000692F70E0C9010E945C26CBCF65E070E011
:103AB000CECF8FE7089581E008958091100380FFB5
:103AC0000CC06091530170E0759567957595679589
:103AD0006115710549F1862F089581FF06C0609137
:103AE000530170E075956795F3CF6091530182FDA6
:103AF0000BC090910F039923A1F060915201809126
:103B00005301961738F0682F70E06038710500F3A4
:103B10008FE70895899FC001112470E00E945C2600
:103B2000F4CF61E070E0D7CF81E00895803F31F4B9
:103B30000E94131D8195809314030895813F19F409
:103B40000E94131DF8CF823F31F40E94131D81950E
:103B5000809313030895833F19F40E94131DF8CF37
:103B6000893F29F40E945D1D8093150308958A3FC3
:103B700021F40E945D1D8195F7CF8B3F31F40E94A7
:103B80005D1D81958093160308958C3F19F40E9462
:103B90005D1DF8CF843F31F48091120381608093E2
:103BA00012030895853F21F4809112038260F7CFBC
:103BB000863F21F4809112038460F1CF873F21F486
:103BC000809112038860EBCF883F21F4809112032B
:103BD0008061E5CF8D3F31F4809110038160809347
:103BE000100308958E3F21F4809110038260F7CF77
:103BF0008F3FB9F7809110038460F1CF9091130348
:103C0000803F41F48091140387FD1092140399239F
:103C100071F00895813F29F4809114031816ACF3D4
:103C2000F6CF823F81F497FFF2CF10921303809179
:103C3000140390911503892B90911603892B49F752
:103C400010920F030895833F19F4191674F3DFCF10
:103C5000893F39F4809115031816CCF6109215039C
:103C6000D6CF8A3F29F48091150387FFD0CFF6CFB6
:103C70008B3F39F48091160387FFC9CF109216034A
:103C8000C6CF8C3F29F4809116031816BCF3BFCF22
:103C9000843F31F4809112038E7F80931203B7CF5B
:103CA000853F21F4809112038D7FF7CF863F21F469
:103CB000809112038B7FF1CF873F21F48091120313
:103CC000877FEBCF883F21F4809112038F7EE5CF71
:103CD0008D3F31F4809110038E7F8093100397CF36
:103CE0008E3F21F4809110038D7FF7CF8F3F09F035
:103CF0008ECF809110038B7FF0CF81E193E00E9403
:103D00009C110E949F1C90930E0380930D030895B5
:103D1000CF93DF9300D000D000D0CDB7DEB786E0E0
:103D2000E1E1F3E0DE01119601900D928A95E1F751
:103D30008091130390911403892B81F080910B03E0
:103D400090910C030E94B71CAC0190910F03992332
:103D500031F1809158018417150670F18091150397
:103D600090911603892B91F08091090390910A0399
:103D70000E94B71CAC0190910F03992309F478C0FD
:103D8000809154018417150608F480C026960FB65A
:103D9000F894DEBF0FBECDBFDF91CF910895209183
:103DA00059018AE0289F9001112424173507B0F6A5
:103DB0009F5F90930F0302C09F3FD1F710921503AE
:103DC0001092160380911303181624F40E94131DF9
:103DD000809313038091130387FF05C00E94131D76
:103DE00081958093130380911403181624F40E9484
:103DF000131D809314038091140387FF05C00E9454
:103E0000131D819580931403309113033323A1F084
:103E100020911403222381F045EB3403C0011124C7
:103E20009923F1F09093130345EB2403900111249F
:103E30003323D1F0309314030E947D1E80910D0333
:103E400090910E0390930C0380930B0386E0FE0188
:103E50003196A1E1B3E001900D928A95E1F77ECF12
:103E600081E080931303E0CF81E080931403E4CFDB
:103E7000209155018AE0289F9001112424173507CD
:103E800008F084CF9F5F90930F0302C09F3FD1F74C
:103E9000109213031092140380911503181624F442
:103EA0000E945D1D809315038091150387FF05C057
:103EB0000E945D1D8195809315038091160318164D
:103EC00024F40E945D1D809316038091160387FFE2
:103ED00005C00E945D1D81958093160330911503E6
:103EE0003323A1F020911603222381F045EB340304
:103EF000C00111249923F1F09093150345EB24039D
:103F0000900111243323D1F0309316030E947D1EBB
:103F100080910D0390910E0390930A0380930903FF
:103F200086E0FE013196A1E1B3E001900D928A9501
:103F3000E1F72CCF81E080931503E0CF81E08093FF
:103F40001603E4CF86E0E1E1F3E0DF011D928A95FC
:103F5000E9F710920F0310921003089580911F0348
:103F600008950895CF93DF93EC010E948E21823053
:103F700011F08430F9F482E08093E9008FEF9091A2
:103F8000E800815095FD06C095ED9A95F1F7000087
:103F90008111F5CF8091E80085FF0CC050E040E032
:103FA00066E070E0CE010E94AB218091E8008E7740
:103FB0008093E800DF91CF910895CF93DF93EC01D8
:103FC0000E948E21823011F0843039F581E0809397
:103FD000E9008FEF9091E800815095FD06C095EDC6
:103FE0009A95F1F700008111F5CF8091E80085FFE7
:103FF00014C050E040E068E070E0CE010E94AB21C8
:104000008091E8008E778093E80088E0FE01A7E1C8
:10401000B3E001900D928A95E1F7DF91CF91089579
:10402000089580915F05811109C00E943B230E9481
:1040300098238091E20084608093E20008951092BA
:104040005F050895089508950C94671C42E061ECA3
:1040500081E00E94B72242E261EC82E00C94B72238
:1040600080916205833009F45FC030F48130C1F182
:10407000823009F49BC008958A3009F487C08B30E0
:1040800009F46DC0893009F04EC08091610581321C
:1040900009F049C08091650590916605029708F086
:1040A00042C08091E800877F8093E8008091E8001B
:1040B00082FF35C09091F3008091F200029729F4BD
:1040C0008091F1008B7F813021F48091F100809309
:1040D0001F038091E8008B778093E8000C94EB221B
:1040E00080916105813AF9F48091E800877F80939F
:1040F000E8008091650590916605892B61F468E080
:1041000087E193E070E00E94FA218091E8008B77CC
:104110008093E800089560E090E080E0F3CF809124
:1041200060058111C3CF089580916105813AD9F767
:104130008091650590916605892BA9F78091E8002B
:10414000877F8093E8008091E80080FFFCCF80911A
:1041500064018093F1008091E8008E77BDCF80915B
:104160006105813201F78091650590916605892B83
:10417000D1F68091E800877F8093E8000E94EB22CF
:1041800080916305809364010C948A158091610588
:10419000813249F68091E800877F8093E8000E9491
:1041A000EB2280916405809320030895809161053E
:1041B000813A09F0B8CF8091E800877F8093E800CA
:1041C0008091E80080FFFCCF80912003C2CF84B7AC
:1041D000877F84BF0FB6F894A895809160008861AE
:1041E00080936000109260000FBE80E890E00FB6F0
:1041F000F89480936100909361000FBE0E94E411D7
:104200000E943B230E9498238091E2008460809367
:10421000E20078940E9421260E94EC118AE591E048
:104220000E94801180916005853019F00E94F7117D
:10423000F9CF0E941F1C80915E05882399F30E948C
:10424000501C882379F30E949521ECCF0C942821EF
:10425000292F33272330310519F168F42130310536
:1042600009F44AC02230310509F44BC090E080E0E7
:1042700030E020E028C02132310579F122323105C9
:10428000A9F780E490E022E339E061157105D9F0E7
:104290008FE490E023EE38E061307105A1F0E6CFC5
:1042A00099278130910599F0009741F0823091056E
:1042B00089F00397D9F6E8E6F8E002C0E2E9F8E011
:1042C000849190E09F01FA01318320830895EEE705
:1042D000F8E0F6CFEEE6F8E0F3CF89E090E028EAE8
:1042E00038E06115710579F389E090E021EC38E060
:1042F0006130710541F3BACF82E190E021ED38E001
:10430000E2CF8BE390E026E938E0DDCF80916005D5
:10431000843011F482E0089581E0089580912103B2
:10432000811102C00C948621089580E189BD82E14B
:1043300089BD09B400FEFDCF8091D8008F7D8093A8
:10434000D8008091E00082608093E0008091E000DE
:1043500081FDFCCF0895AF92BF92CF92DF92FF9282
:104360000F931F93CF93DF936C01EB018A010E949F
:104370000A23F82E811123C00115110539F0F80127
:1043800080819181C81BD90BC80ED91EB12CA12CDC
:104390002097A9F08091E80085FD22C08091E80077
:1043A0008E778093E80001151105A1F0F801808156
:1043B0009181A80EB91EB182A08285E0F82E8F2DC2
:1043C000DF91CF911F910F91FF90DF90CF90BF9021
:1043D000AF9008950E940A238823D1F2F82EEFCFE0
:1043E000F60181916F018093F1002197FFEFAF1AE1
:1043F000BF0ACECFFC0180916705909168058617B2
:104400009707A0F06115710529F49091E8009E7757
:104410009093E80090E06115710551F4911108C086
:104420008091E80082FF34C080E00895BC01F2CFA3
:10443000809160058823C1F18530C1F18091E80049
:1044400083FD30C08091E80082FDEACF8091E800D2
:1044500080FFE1CF8091F3002091F200382F6115A9
:10446000710519F02830310558F091E028303105F8
:1044700009F090E02091E8002E772093E800CBCF60
:1044800081918093F100615071092F5F3F4FE7CF19
:1044900080916005882341F0853041F08091E800EB
:1044A00083FFBECF81E0089582E0089583E0089500
:1044B000FC01809167059091680586179707A0F029
:1044C0006115710529F48091E8008E778093E800EA
:1044D00090E06115710551F4911108C08091E800D8
:1044E00082FF35C080E00895BC01F2CF8091600565
:1044F0008823C9F18530C9F18091E80083FD31C07E
:104500008091E80082FDEACF8091E80080FFE1CF52
:104510008091F3002091F200382F6115710519F098
:104520002830310558F091E02830310509F090E04D
:104530008091E8008E778093E800CBCF84918093C0
:10454000F1003196615071092F5F3F4FE6CF8091A6
:104550006005882341F0853041F08091E80083FFB9
:10456000BDCF81E0089582E0089583E00895982FFB
:10457000973028F08F708093E90081E00895909340
:10458000E900242F762F50E0981731F07091EC005D
:104590002091ED005091F00021FD02C09F5FE8CF17
:1045A0003091EB003E7F3093EB003091ED003D7F8A
:1045B0003093ED003091EB0031603093EB0070935D
:1045C000EC002093ED005093F0002091EE0027FDC9
:1045D000E5CF80E008958091610587FF13C0809149
:1045E000E80082FF06C08091E8008B778093E800A6
:1045F00004C0809160058111F2CF0895809160051B
:104600008823D9F38091E80080FFF8CF8091E800FB
:104610008E77ECCF2091E4003091E50095E6A9017A
:104620002091EC00822F817020FF06C08091E8006D
:1046300080FF06C080E008952091E80022FD1AC0A6
:1046400080916005882389F0853089F08091EB00A6
:1046500085FD0FC02091E4003091E500421753071B
:10466000F9F29150E1F684E0089582E0089583E044
:10467000089581E008950E94A9230E94B123E0EEED
:10468000F0E0808181608083E8EDF0E080818F77C9
:10469000808319BCA7EDB0E08C918E7F8C938081D4
:1046A0008F7E808310925F0508950F931F93CF93A1
:1046B000DF930E94A9230E94B123C8EDD0E0888136
:1046C0008F77888388818068888388818F7D8883BD
:1046D00019BC1092600510925C0510925E05109254
:1046E0005D0500EE10E0F80180818B7F808388817A
:1046F0008160888342E060E080E00E94B722E1EEC2
:10470000F0E080818E7F8083E2EEF0E08081816046
:104710008083808188608083F80180818E7F8083A0
:10472000888180618883DF91CF911F910F910895D7
:10473000E8EDF0E080818F7E8083E7EDF0E080811E
:104740008160808384E082BF81E080935F050C9468
:104750005523E8EDF0E080818E7F80831092E200A7
:1047600008951092DA001092E10008951F920F92BE
:104770000FB60F9211242F933F934F935F936F9334
:104780007F938F939F93AF93BF93EF93FF9380910A
:10479000E10082FF0BC08091E20082FF07C08091A0
:1047A000E1008B7F8093E1000E9420268091DA0057
:1047B00080FF19C08091D80080FF15C08091DA0079
:1047C0008E7F8093DA008091D90080FF96C080E1CF
:1047D00089BD82E189BD09B400FEFDCF81E08093EF
:1047E00060050E9411208091E10080FF19C0809136
:1047F000E20080FF15C08091E2008E7F8093E2008E
:104800008091E20080618093E2008091D800806214
:104810008093D80019BC85E0809360050E94232016
:104820008091E10084FF2BC08091E20084FF27C0CB
:1048300080E189BD82E189BD89B5982F917080FFA3
:10484000FBCF8091D8008F7D8093D8008091E100CC
:104850008F7E8093E1008091E2008F7E8093E20062
:104860008091E20081608093E20080915C05882362
:1048700009F449C084E0809360050E94242080915F
:10488000E10083FF29C08091E20083FF25C0809171
:10489000E100877F8093E10082E0809360051092C1
:1048A0005C058091E1008E7F8093E1008091E200C1
:1048B0008E7F8093E2008091E20080618093E2002D
:1048C00042E060E080E00E94B7228091F0008860C2
:1048D0008093F0000E942220FF91EF91BF91AF9151
:1048E0009F918F917F916F915F914F913F912F9108
:1048F0000F900FBE0F901F90189519BC1092600575
:104900000E941F2070CF8091E30087FD93E0909379
:104910006005B3CF1F920F920FB60F9211242F9301
:104920003F934F935F936F937F938F939F93AF9337
:10493000BF93CF93DF93EF93FF93D091E900DF70A4
:104940008091EC00C82FC17080FDC0E81092E90092
:104950008091F000877F8093F00078940E94CE24AD
:104960001092E9008091F00088608093F000CD2BD8
:10497000CF70C093E900FF91EF91DF91CF91BF918C
:10498000AF919F918F917F916F915F914F913F91E7
:104990002F910F900FBE0F901F9018951F93CF93DC
:1049A000DF93CDB7DEB7AA970FB6F894DEBF0FBE80
:1049B000CDBF81E695E02091F100FC012193CF016C
:1049C000F5E089369F07B9F70E9430208091E80012
:1049D00083FF1EC180916105909162059A3008F0B5
:1049E00017C1E92FF0E0E953F64D0C94702680389A
:1049F00099F0823809F00CC1809165058F7087307D
:104A000008F006C18093E9008091EB0085FB8827C0
:104A100080F91092E90006C080915D0590915E05D5
:104A2000911182609091E800977F9093E8008093C5
:104A3000F1001092F1008091E8008E77E5C08823A4
:104A400009F4D3C0823009F0E3C08091630581117D
:104A5000D6C0809165058F702FEF280F263008F0A3
:104A6000D7C08093E9002091EB0020FFC8C09330AD
:104A700031F48091EB0080628093EB00C0C0909194
:104A8000EB0090619093EB0021E030E001C0220F39
:104A90008A95EAF72093EA001092EA008091EB00F1
:104AA0008860EACF8111B4C0109163051F778091AF
:104AB000E3008078812B8093E3008091E800877F7A
:104AC0008093E8000E94EB228091E80080FFFCCFF9
:104AD0008091E30080688093E30082E0111183E01D
:104AE0008093600595C08058823008F091C0809115
:104AF0006305909164058C3D23E09207A1F583E066
:104B00008A838AE289834FB7F894DE01139620E006
:104B10003EE051E2E32FF0E050935700E49120FF94
:104B200003C0E295EF703F5FEF708E2F90E0EA30A8
:104B3000C0F0C7968D939D932F5F243159F74FBFD7
:104B40008091E800877F8093E8006AE270E0CE0100
:104B500001960E94FA218091E8008B778093E8000B
:104B600057C0C096E7CF6091650570916605AE01AC
:104B70004F5F5F4F0E942621BC01892B09F448C07A
:104B80009091E800977F9093E80089819A810E9434
:104B90005822E1CF8038E1F58091E800877F80934B
:104BA000E80080915C058093F10045CF811130C011
:104BB00090916305923060F58091E800877F809343
:104BC000E80090935C050E94EB2280915C058823AD
:104BD00011F084E005C08091E30087FDFACF81E009
:104BE000809360050E94262013C080916305813068
:104BF00079F481E0933009F080E080935E051092B3
:104C0000E9008091E800877F8093E8000E94EB2212
:104C10008091E80083FF0AC08091E800877F80933D
:104C2000E8008091EB0080628093EB00AA960FB6BB
:104C3000F894DEBF0FBECDBFDF91CF911F910895D5
:104C40000895CF93809160058823A1F0C091E90079
:104C5000CF709091EC00892F817090FD80E8C82B77
:104C60001092E9008091E80083FD0E94CE24CF706D
:104C7000C093E900CF910895991B79E004C0991F72
:104C8000961708F0961B881F7A95C9F780950895A6
:104C9000AA1BBB1B51E107C0AA1FBB1FA617B70762
:104CA00010F0A61BB70B881F991F5A95A9F780957E
:104CB0009095BC01CD01089597FB072E16F4009442
:104CC00007D077FD09D00E94482607FC05D03EF4A6
:104CD000909581959F4F0895709561957F4F0895A8
:104CE000EE0FFF1F0590F491E02D0994FB01DC010C
:104CF00002C005900D9241505040D8F70895FB0135
:104D0000DC0104C08D910190801921F44150504084
:104D1000C8F7881B990B0895FB01DC0101900D92E7
:104D20000020E1F70895AEE0B0E0E9E9F6E20C9486
:104D300082290D891E898F89988D26E02C831A83FC
:104D4000098397FF02C080E090E801979E838D83DE
:104D5000AE01455E5F4F698D7A8DCE0101960E944E
:104D6000C3264D815E8157FD0AC02F8138854217C9
:104D700053070CF49A01020F131FF80110822E96AC
:104D8000E4E00C949E29ABE0B0E0E9ECF6E20C9490
:104D900074297C013B018A01FC0117821682838100
:104DA00081FFB9C19AE0292ECE0101965C01F7017D
:104DB0009381F30193FD859193FF81913F018823B6
:104DC00009F446C1853239F493FD859193FF8191B1
:104DD0003F01853229F4B70190E00E94A428E7CF73
:104DE000912C412C512CFFE1F51538F08B3209F153
:104DF00088F4803201F1833221F157FC3AC020ED72
:104E0000280F2A3040F556FE1FC0929C200D112419
:104E1000922E06C08D3291F0803379F7689450F865
:104E2000F30193FD859193FF81913F018111DBCFC8
:104E300020C0689451F8689452F8F2CF689453F8FF
:104E4000EFCF689454F8ECCF429C200D1124422EF1
:104E5000689455F8E5CF8E3229F456FCF9C0689471
:104E600056F8DECF8C3619F4689457F8D9CF8836C7
:104E7000B9F2982F9F7D95549330C0F08336A1F1FD
:104E80008337C1F1833509F05BC0F801C190D1903F
:104E90008F01692D70E056FC02C06FEF7FEFC601F5
:104EA0000E948E284C01689457F80AC00C5F1F4F6F
:104EB0002FE3298388248394912C6501E89457F883
:104EC00053FC04C04814190409F018F5342C81145B
:104ED000910431F5332009F46ACFB70180E290E004
:104EE0000E94A4283A94F6CFF801808189830E5F4E
:104EF0001F4FE0CFF801C190D1908F01692D70E074
:104F000056FC02C06FEF7FEFC6010E9499284C014A
:104F1000D5CFB70180E290E00E94A4284A94D2CF76
:104F2000F60157FC859157FE81916F01B70190E022
:104F30000E94A42831103A94F1E08F1A9108C7CF4B
:104F4000843619F0893609F074C0F80157FE6AC03A
:104F500061917191819191918F01252D2F76D22EA2
:104F600097FF09C090958095709561957F4F8F4F01
:104F70009F4F6894D7F82AE030E0A5010E94D4281A
:104F8000C82ECA188C2C5D2CD6FE0CC0E89450F8A4
:104F9000C91440F4D4FE05C0D2FC03C0FD2DFE7E32
:104FA0005F2E892C54FE8FC0FE01EC0DF11D808117
:104FB000803309F081C0252D297E522E852D8870E1
:104FC000382E53FC8FC050FE89C09C2C841418F4DA
:104FD0004C0C942C981854FE8BC0B70180E390E0E1
:104FE0000E94A42852FE09C088E790E051FE02C04A
:104FF00088E590E0B7010E94A428C91408F484C091
:10500000CA94D12C9FEFC91AD90ACA0CDB1CF6012D
:1050100082916F01B70190E00E94A428AC14BD04F6
:10502000B1F758CF61917191072E000C880B990B45
:1050300093CFD52CE894D4F82AE030E0853739F1C5
:10504000952D997FD92E8F3601F148F48835A9F036
:10505000F701868197812B96E2E10C9490298037A5
:1050600049F08837A9F7D4FE02C06894D2F820E14D
:1050700030E00DC06894D4F8F6CF54FE03C0E92F99
:10508000E660DE2E20E132E002C028E030E0F801E8
:10509000D7FE0DC061917191819191918F01A50110
:1050A0000E94D428C82ECA18E894D7F86BCF619113
:1050B000719190E080E0F2CF52FC02C083947ECFE9
:1050C000839483947BCF852D867809F477CFF6CFB0
:1050D000B70180E290E00E94A42883948414C0F376
:1050E000312C79CF342C3818841408F474CFF8CFCD
:1050F000852D867809F481CF8BE251FE80E257FC42
:105100008DE2B70190E077CFB70180E390E00E9495
:10511000A4289A9472CF8FEF9FEF9DCFFC0105904A
:10512000615070400110D8F7809590958E0F9F1FA9
:105130000895FC016150704001900110D8F78095EE
:1051400090958E0F9F1F08950F931F93CF93DF931A
:10515000182F092FEB018B8181FD09C01FEF0FEF85
:10516000812F902FDF91CF911F910F91089582FF92
:1051700014C02E813F818C819D81281739073CF412
:10518000E881F981CF0101969983888310838E810C
:105190009F8101969F838E83E3CFE885F985812FD8
:1051A0000995892BA1F3DACFFA01AA27283051F10A
:1051B000203181F1E8946F936E7F6E5F7F4F8F4F48
:1051C0009F4FAF4FB1E03ED0B4E03CD0670F781FA7
:1051D000891F9A1FA11D680F791F8A1F911DA11D8C
:1051E0006A0F711D811D911DA11D20D009F46894C5
:1051F0003F912AE0269F11243019305D3193DEF66D
:10520000CF010895462F4770405D4193B3E00FD022
:10521000C9F7F6CF462F4F70405D4A3318F0495D0D
:1052200031FD4052419302D0A9F7EACFB4E0A695F0
:105230009795879577956795BA95C9F70097610512
:10524000710508959B01AC010A2E06945795479568
:1052500037952795BA95C9F7620F731F841F951F5D
:10526000A01D0895F999FECF92BD81BDF89A9927A6
:1052700080B50895A8E1B0E042E050E00C946629C2
:10528000262FF999FECF92BD81BDF89A019700B4FF
:10529000021639F01FBA20BD0FB6F894FA9AF99A9F
:1052A0000FBE08950396272F0E9441290E9440298E
:1052B000252F0E944129242F0C9441290196272F44
:1052C0000E9441290C944029DC01CB01FC01F99991
:1052D000FECF06C0F2BDE1BDF89A319600B40D9242
:1052E00041505040B8F708952F923F924F925F92ED
:1052F0006F927F928F929F92AF92BF92CF92DF92E6
:10530000EF92FF920F931F93CF93DF93CDB7DEB74A
:10531000CA1BDB0B0FB6F894DEBF0FBECDBF0994DE
:105320002A88398848885F846E847D848C849B8435
:10533000AA84B984C884DF80EE80FD800C811B8143
:10534000AA81B981CE0FD11D0FB6F894DEBF0FBE72
:10535000CDBFED010895F894FFCF87138713DF13B6
:10536000DF13B4133114B413B4133C14C814D7149A
:10537000D71499159915A215A215A415A215A21551
:10538000A21599159915A915A215A215A915F72405
:105390001F2508261F250826522573250826CA25FD
:0253A000D62510
:1053A200808182838485868788898A8B8C8D8E8F83
:1053B2009091929394A0A1A2A3A4A5A6A7A8A9AAFA
:1053C200ABACADAEAFB0B1B2B3B4C0C1C2C3C4C571
:1053D200C6C7C8C9CACBCCCDCECFD0D1D2D3D400C8
:1053E2000146020047020547020021007F22000316
:1053F200FC022808641E140A321EAE1FDD1FB21FF3
:10540200B11F1020014C617965723A2044656661D2
:10541200756C74004C617965723A205261697365EA
:10542200004C617965723A204C6F776572004C616D
:105432007965723A2041646A757374004C617965CA
:10544200723A20556E6465662D256C640025647879
:1054520025642C206B253264203A2025630020200D
:1054620020206162636465666768696A6B6C6D6E51
:105472006F707172737475767778797A31323334EA
:1054820035363738393052454254202020202020EA
:10549200203B27202C2E2F202020F6F731333236C6
:1054A2006697C63435000000000000081018181076
:0254B2000800F0
:00000001FF
